:100000000C945F000C947C000C947C000C947C009D
:100010000C947C000C947C000C947C000C947C0070
:100020000C947C000C9465080C947E080C947C0065
:100030000C947C000C947C000C947C000C947C0050
:100040000C947C000C947C000C947C000C947C0040
:100050000C947C00036EDB363D9A9999993DABAACE
:10006000AA2A3E000000803F084AD73B3BCE016EE3
:1000700084BCBFFDC12F3D6C74319ABD56833DDAFF
:100080003D00C77F11BED9E4BB4C3E916BAAAABE0E
:10009000000000803F072C7AA5BA6CC590DA3B932C
:1000A00065FC8BBC53F810FD3C5692834DBD879D7B
:1000B0003AB63DCBC9BF5BBE73DA0FC93F0011240E
:1000C0001FBECFE5D8E0DEBFCDBF11E0A0E6B0E0B7
:1000D000E6E6F4E202C005900D92A03AB107D9F726
:1000E00011E0A0EAB1E001C01D92A43CB107E1F724
:1000F0000E947E000C9432120C9400002F923F92CA
:100100004F925F926F927F928F929F92AF92BF9227
:10011000CF92DF92EF92FF920F931F93CF93DF93D3
:10012000CDB7DEB7C456D6400FB6F894DEBF0FBECB
:10013000CDBF0E94100882E00E946E0981B38F67D4
:1001400081BB87B38FEF87BB84B38C6F84BBC85AE6
:10015000D94F19821882C855D640C65AD94F19822C
:100160001882CA55D640CA5AD94F19821882C65524
:10017000D6409E012959394FCD59D94F398328830B
:10018000C356D64083B38130E9F783B38130E9F3B6
:10019000A0E083B38823E9F350E06A2F70E0879BE7
:1001A00016C049B3252F30E088E290E0289FF00187
:1001B000299FF00D389FF00D1124E60FF71F81E005
:1001C00090E08C0F9D1FE80FF91F40835F5F58324E
:1001D00030F383B38230E9F380E496E00197F1F7DE
:1001E000AF5FA832B0F29AC6D8016C9170E0882750
:1001F00077FD8095982F0E94ED0F20E030E040E8D9
:100200005DE30E94FD109B01AC010E94FD100E9465
:10021000BF0FF8016083653608F41082D8016C9135
:100220006536E0F064566C9370E0882777FD809522
:10023000982F0E94ED0F2FE832EC45ED5FE30E940E
:10024000FD100E94BF0FDC01CB0169E10E94C811C3
:1002500099E1899FC0011124F8018083D394085D3E
:100260001F4FF8E2DF1609F0BFCF0894E11CF11C24
:1002700028E2E216F10409F405C652C6D5016C91D4
:10028000F4012081620F712D711DD6012C91620F36
:10029000711DF7012081620F711D882777FD809500
:1002A000982F0E94ED0F20E030E040E85EE30E94CE
:1002B000FD100E94BF0FD4016C93F5016083D6013D
:1002C0006C93F7016083739428E230E0820E931EF2
:1002D000A20EB31EC20ED31EE20EF31E35E273163B
:1002E00069F60F5F1F4F0832110509F4F3C5CCC53D
:1002F000D3016C9170E0882777FD8095982F0E943C
:10030000ED0F20E030E040E85DE30E94FD107B014E
:100310008C01F501608170E0882777FD8095982F2A
:100320000E94ED0F20E030E040E05EE30E94FD100F
:100330009B01AC01C801B7010E94AF0E7B018C018B
:10034000D4016C9170E0882777FD8095982F0E94EA
:10035000ED0F20E030E040E85DE30E94FD109B01DE
:10036000AC01C801B7010E94AF0E7B018C01F30103
:10037000618170E0882777FD8095982F0E94ED0FAE
:1003800020E030E040E05EE30E94FD109B01AC0104
:10039000C801B7010E94AF0E7B018C01F50161819C
:1003A00070E0882777FD8095982F0E94ED0F20E060
:1003B00030E040E85EE30E94FD109B01AC01C80103
:1003C000B7010E94AF0E7B018C01F401618170E0E6
:1003D000882777FD8095982F0E94ED0F20E030E070
:1003E00040E05EE30E94FD109B01AC01C801B70133
:1003F0000E94AF0E7B018C01F301628170E08827BF
:1004000077FD8095982F0E94ED0F20E030E040E8C6
:100410005DE30E94FD109B01AC01C801B7010E9481
:10042000AF0E7B018C01F501628170E0882777FDBA
:100430008095982F0E94ED0F20E030E040E05EE3D1
:100440000E94FD109B01AC01C801B7010E94AF0ED4
:100450007B018C01F401628170E0882777FD809533
:10046000982F0E94ED0F20E030E040E85DE30E940D
:10047000FD109B01AC01C801B7010E94AF0E0E94A4
:10048000BF0FF5016183539428E230E0620E731EC2
:10049000A20EB31E820E931E37E2531609F028CF28
:1004A0000894C11CD11C86E2C816D10409F440C5C9
:1004B00013C5C05BD94FA881B981C055D640AC9057
:1004C000BB24C25BD94FE881F981CE54D64020804D
:1004D0003324B50162197309882777FD8095982F19
:1004E0000E94ED0F20E030E040E85EE30E94FD1046
:1004F0007B018C01C05BD94FE881F981C055D640A2
:10050000618170E0C25BD94FE881F981CE54D64059
:100510002181621B7109882777FD8095982F0E94A1
:10052000ED0F20E030E040E05FE30E94FD109B0112
:10053000AC01C801B7010E94AF0E3B014C01C05B8A
:10054000D94FE881F981C055D64042805524C25B1D
:10055000D94FE881F981CE54D640E280FF24B20120
:100560006E197F09882777FD8095982F0E94ED0FDF
:1005700020E030E040E85EE30E94FD109B01AC010A
:10058000C401B3010E94AF0E3B014C01E218F30815
:100590000027F7FC0095102FC801B7010E94ED0F4E
:1005A00020E030E040E85EE30E94FD107B018C011A
:1005B000C45BD94FA881B981CC54D6406C9170E00E
:1005C000FD012281621B7109882777FD8095982F94
:1005D0000E94ED0F20E030E040E05FE30E94FD105C
:1005E0009B01AC01C801B7010E94AF0E7B018C01D9
:1005F000A418B508CC24B7FCC094DC2CC601B50106
:100600000E94ED0F20E030E040E85EE30E94FD1024
:100610009B01AC01C801B7010E94AF0E5B016C01E8
:10062000A4019301C401B3010E94FD100E94BF0FF9
:1006300080E090E00E94000D7B018C01A6019501F5
:10064000C601B5010E94FD109B01AC01C801B701B4
:100650000E94AF0E0E94BF0F80E090E00E94000D4C
:100660000E9464110E94BF0FAB01BC01542EC45BF9
:10067000D94FE881F981CC54D6404183242F30E012
:10068000C25AD94FF881CE55D6408F2F90E00296AE
:10069000821793072CF4C25AD94F4883CE55D640BF
:1006A000A4019301C601B5010E94520F7B018C0188
:1006B00028EB3EE145E85EEB0E94471088231CF1E1
:1006C00028EB3EE145E85EE3C801B7010E94431014
:1006D0008823CCF4C05BD94FE881F981C055D6405E
:1006E0008181581648F0C25BD94FE881F981CE5418
:1006F000D6408181581638F4C45BD94FE881F9811E
:10070000CC54D640118225E83BEE41E15FE3C801BD
:10071000B7010E944710181654F524EA30E74DED52
:100720005FE3C801B7010E944310882304F5C45B4E
:10073000D94FE881F981CC54D6409181C05BD94F23
:10074000E881F981C055D6408281981748F0C25B94
:10075000D94FA881B981CE54D6408C91981738F4DE
:10076000C45BD94FE881F981CC54D640118222E58F
:1007700038EB4EE650E4C801B7010E944710181646
:1007800054F022E538EB4EE650ECC801B7010E9468
:1007900043108823A4F4C45BD94FE881F981CC5479
:1007A000D64091818281981718F08081981738F48B
:1007B000C45BD94FE881F981CC54D640118224EA38
:1007C00030E74DED5FEBC801B7010E9447101816E6
:1007D00054F525E83BEE41E15FEBC801B7010E940B
:1007E0004310882304F5C45BD94FE881F981CC54C8
:1007F000D6409181C25BD94FE881F981CE54D64071
:100800008281981748F0C05BD94FA881B981C05543
:10081000D6408C91981738F4C45BD94FE881F981A0
:10082000CC54D6401182C45BD94FE881F981CC54B5
:10083000D64091819A3108F46EC0892F8A51853053
:1008400018F5C05BD94FE881F981C055D640818148
:10085000883208F061C0C25BD94FE881F981CE547B
:10086000D6408181883208F057C0C45BD94FE881F7
:10087000F981CC54D6408281883208F04DC0808105
:10088000883208F049C047C09F51993008F044C0F1
:10089000C05BD94FE881F981C055D640818188324B
:1008A000D8F5C25BD94FE881F981CE54D640818119
:1008B000883290F5C45BD94FE881F981CC54D64099
:1008C0008281883248F58081883230F5C05BD94F0B
:1008D000E881F981C055D64082818832E8F4C25B54
:1008E000D94FA881B981CE54D6408C918832A0F4DA
:1008F000FD018281883280F4C05BD94FA881B98123
:10090000C055D6408C91883238F4C45BD94FE88109
:10091000F981CC54D6401182CF5BD94FF881C154B4
:10092000D640FF5FCF5BD94FF883C154D640C05B40
:10093000D94F28813981C055D640285D3F4FC05BD3
:10094000D94F39832883C055D640C25BD94F88819F
:100950009981CE54D6408896C25BD94F99838883BB
:10096000CE54D640C45BD94FA881B981CC54D6406F
:100970009896C45BD94FB983A883CC54D640F7323C
:1009800009F097CDC85BD94FE881F981C854D640AA
:100990008191C85BD94FF983E883C854D640CA5BBC
:1009A000D94FA881B981C654D6408D93CA5BD94F1F
:1009B000B983A883C654D640E1E0F0E0EC0FFD1FF8
:1009C000CE5BD94F28813981C254D640E20FF31F44
:1009D000CC5BD94FA881B981C454D6408D91CC5BF2
:1009E000D94FB983A883C454D6408083C65BD94FFE
:1009F000E881F981CA54D6403196C65BD94FF98354
:100A0000E883CA54D6402F5F3F4FCE5BD94F39831E
:100A10002883C254D640B69709F0B7C29E01295D1B
:100A20003F4FDE011196F90180818183FD018181B3
:100A30008C93285D3F4F9896CD59D94F88819981E5
:100A4000C356D6402817390709F4DCC2ECCF8081A1
:100A5000682F70E0CD0102968617970758F4C05AA8
:100A6000D94F2883C056D640C15AD94F1883CF5585
:100A7000D640DB012F5F3F4FB8962732310539F75B
:100A80004F5F5F4F4732510509F0C0C2C15AD94F7D
:100A9000B881CF55D640AB2FB0E0CE5AD94FB983ED
:100AA000A883C255D64061E0462E512C4C0E5D1EE7
:100AB0004A0E5B1EC45AD94F19821882CC55D640B3
:100AC0000F2EF0E06F2EF0E07F2EF0E08F2EF0E0A2
:100AD0009F2EF02D6401530151E0252E312CF2019F
:100AE000F0800F2D10E0B801882777FD8095982FB2
:100AF0000E94ED0F9B01AC01C601B5010E94AF0E33
:100B00005B016C01209EB001219E700D309E700D26
:100B10001124882777FD8095982F0E94ED0F9B0167
:100B2000AC01C401B3010E94AF0E3B014C01FAE0DD
:100B3000FF1570F4C45AD94F28813981CC55D6405D
:100B40002F5F3F4FC45AD94F39832883CC55D640A5
:100B500088E290E0480E591E0894211C311C99E24D
:100B60002916310409F0BBCFA6019501C401B301D8
:100B70000E94520F20E030E040E251E40E94FD105C
:100B80000E94BA0FCF59D94F79836883C156D64096
:100B9000C05AD94FB881C056D640AB2FB0E0CC5A1E
:100BA000D94FB983A883C455D64088E290E0A89F66
:100BB0006001A99FD00CB89FD00C1124E1E0F0E0B7
:100BC000EC0FFD1FCE0EDF1E0F2EF0E04F2EF0E0DB
:100BD0005F2EF0E06F2EF0E07F2EF02D53014201EA
:100BE00041E0242E312CD601FC900F2D10E0B801ED
:100BF000882777FD8095982F0E94ED0F9B01AC010F
:100C0000C501B4010E94AF0E4B015C01209EB001F2
:100C1000219E700D309E700D1124882777FD8095E0
:100C2000982F0E94ED0F9B01AC01C301B2010E94FD
:100C3000AF0E2B013C01BAE0BF1568F4C45AD94F7E
:100C4000E881F981CC55D6403196C45AD94FF98301
:100C5000E883CC55D6400894C11CD11C0894211CB3
:100C6000311CF9E22F16310409F0BDCFA501940122
:100C7000C301B2010E94520F20E030E040E251E493
:100C80000E94FD100E94BA0F8B019C01C45AD94FDB
:100C900088819981CC55D640880F991F880F991F5C
:100CA000CF59D94FE881F981C156D640F695E795DD
:100CB00016950795C65AD94F28813981CA55D6400D
:100CC000280F391F36952795C65AD94F398328835F
:100CD000CA55D640C85AD94FA881B981C855D640FF
:100CE000AE0FBF1FB695A795C85AD94FB983A88331
:100CF000C855D640CA5AD94F28813981C655D640E1
:100D0000200F311F36952795CA5AD94F398328832A
:100D1000C655D640C65AD94FA881B981CA55D640C2
:100D20008A0F9B1F969587956AE070E00E94D41108
:100D30006B01CB0143E0880F991F4A95E1F7CC0C7A
:100D4000DD1CC80ED91EC85AD94F28813981C85513
:100D5000D640E20FF31FCF01969587956AE070E0C9
:100D60000E94D4117B01CB01B3E0880F991FBA9583
:100D7000E1F7EE0CFF1CE80EF91ECA5AD94F888124
:100D80009981C655D640080F191FC80196958795B9
:100D90006AE070E00E94D4118B01CB01E3E0880F80
:100DA000991FEA95E1F7000F111F080F191F60E066
:100DB00081E00E945C0963E070E0C6010E94FB08CC
:100DC00060E085E00E945C0963E070E0CC5AD94F96
:100DD00088819981C455D6400E94FB0860E089E073
:100DE0000E945C0963E070E0CE5AD94F88819981F6
:100DF000C255D6400E94FB0860E08DE00E945C096D
:100E0000CB5CDC4F8881C553D34063E070E090E059
:100E10000E94FB0861E081E00E945C0963E070E0F1
:100E2000C25AD94FA881CE55D6408A2F90E00E9451
:100E3000FB0861E085E00E945C0963E070E0C701A7
:100E40000E94FB0861E089E00E945C0963E070E0B9
:100E5000C8010E94FB0861E08DE00E945C0983B339
:100E600063E070E090E00E94FB08C70105960E94D5
:100E70003608C80105960E944608C60105960E94DC
:100E8000530880C900E010E061E0862E912C8C0EA2
:100E90009D1E800E911E085D1F4F51E0A52EB12CA6
:100EA000AC0EBD1EA00EB11E085D1F4F41E0C42E4A
:100EB000D12CCC0EDD1EC00ED11E085D1F4F31E0BF
:100EC000E32EF12CEC0EFD1EE00EF11E0857104033
:100ED0007724D4C9CC24DD2421E0622E712C6C0E41
:100EE0007D1E6C0C7D1CE8E2F0E0CE0EDF1E91E072
:100EF000A92EB12CAC0EBD1EAC0CBD1CCE0EDF1E3F
:100F000081E0882E912C8C0E9D1E8C0C9D1C20EB5C
:100F10003FEFC20ED31E55245394EAC9EE24FF249A
:100F200001E010E00C0F1D1F0E0D1F1DDD245CC91C
:100F3000CE018E509A4FC85BD94F99838883C8548D
:100F4000D640DE01A65EB94FCA5BD94FB983A883EC
:100F5000C654D640FE01BA96CC5BD94FF983E883DC
:100F6000C454D640C25AD94F1882CE55D640C65B1B
:100F7000D94F19821882CA54D64021E030E0CE5BA6
:100F8000D94F39832883C254D640C65BD94F888154
:100F90009981CA54D640805B9F4FA1E0B0E0AC0F6E
:100FA000BD1FA80FB91FC05BD94FB983A883C05517
:100FB000D64080559040E1E0F0E0EC0FFD1FE80FD7
:100FC000F91FC25BD94FF983E883CE54D640889687
:100FD00021E030E02C0F3D1F280F391FC45BD94F93
:100FE00039832883CC54D6408897C65BD94F9983E0
:100FF0008883CA54D64031E0CF5BD94F3883C1547F
:10100000D64057CAA0E0B0E040E050E0142FE1E045
:10101000F0E0EC0FFD1FE40FF51F20E030E017CDEE
:10102000789480E29EE40197F1F717BC16BC8FB567
:101030008FBD8CB59DB59DBD8CBD8EB58EBD8CB55F
:101040009DB59DBD8CBD83B783BF82B782BF85B57B
:1010500085BD84B584BD19BE88B7846088BF88B754
:10106000826088BF88B7806888BF08952FEF30E01E
:1010700037BD26BD9BBD8ABD8FB5826A8FBD8EB53B
:101080008B618EBD89B7846089BF08952FEF30E0F2
:1010900037BD26BD99BD88BD8FB5826A8FBD8EB51F
:1010A0008B618EBD08952FEF30E037BD26BD2FB583
:1010B000226A2FBD2EB52B612EBD29B7246029BF12
:1010C0008CBF83B78B6483BF08951F920F920FB6B6
:1010D0000F9211248F939F9382B398E0892782BB4C
:1010E00088B7826088BF89B7826089BF12BE9F912E
:1010F0008F910F900FBE0F901F9018951F920F9217
:101100000FB60F9211248F93939889B78D7F89BF63
:101110008F910F900FBE0F901F90189587B3807F0F
:1011200087BBC59AC49881E08A95F1F7C69A81E099
:10113000982F9A95F1F726B32295207F982F9A95AC
:10114000F1F7C69892E0392F3A95F1F7C69A382F01
:101150003A95F1F736B38A95F1F7C6989A95F1F773
:1011600027FDE4CFC59887B38F6087BB0895282FEC
:10117000662311F4C49801C0C49A81E08A95F1F7FE
:10118000C69A88B3922F92959F70807F982B98BBB8
:1011900092E0892F8A95F1F7C698892F8A95F1F701
:1011A000C69A88B32F70807F822B88BB892F8A953F
:1011B000F1F7C6989A95F1F70E948E080895CF939B
:1011C000DF93EC0112C0853261F42196888180534F
:1011D000883038F061E085E20E94B70861E08881DC
:1011E00001C061E00E94B70821968881882359F7E1
:1011F000DF91CF910895EF92FF920F931F93CF93BA
:10120000DF93CDB7DEB725970FB6F894DEBF0FBEDC
:10121000CDBF9C018B0185E0FE01319611928A952C
:10122000E9F7FE0135960CC0C9016AE070E00E9442
:10123000E8118183C9016AE070E00E94E8119B0116
:1012400031972115310581F78FEF0F3F180779F49A
:1012500020E030E0AE014F5F5F4F02C02F5F3F4F95
:10126000FA01E20FF31F80818823C1F304C025E057
:1012700030E0201B310B7E010894E11CF11CE20ED2
:10128000F31E890109C0F70181917F0161E0805D52
:101290000E94B7080F5F1F4F05301105A4F3259674
:1012A0000FB6F894DEBF0FBECDBFDF91CF911F9177
:1012B0000F91FF90EF900895843178F4623031F00F
:1012C000633031F0613029F4806403C08C5E01C06A
:1012D0008C5A60E080680E94B70808951F93CF93EE
:1012E000DF93182F80E69AEE0197F1F787B38F60AE
:1012F00087BBBE9ABC9ABD9A88B3807F88BBC698CC
:10130000C598C49881E08A95F1F7C69AC19A82E09F
:10131000982F9A95F1F7C6988A95F1F70E948E0852
:1013200060E0812F8C600E94B70860E088E20E9434
:10133000B70860E080E40E94B708C0E6D0E061E052
:1013400089910E94B70880E0C03AD807C1F760E0F1
:1013500080E00E945C09DF91CF911F9108952FEFEB
:101360002093A1012091A1012093A001292F3327CF
:1013700020BD89B986E880BD88E18AB9789408954E
:101380005F9BFECF8CB190E00895E091A101FF2713
:10139000E7FDF095EE55FE4FE0818091A101882395
:1013A00019F48FEF8093A1018091A1018F5F809349
:1013B000A1018091A101853011F41092A1018E2F1D
:1013C00090E008955D9BFECF8CB908958091A101B6
:1013D00090E00895FC0104C05D9BFECF8CB931966E
:1013E00080818823C9F75D9BFECF1CB80895AF921A
:1013F000BF92CF92DF92EF92FF920F931F93CF9302
:10140000DF93EC0189B390E00C2E02C0959587958F
:101410000A94E2F780FDF6CF89B390E00C2E02C06B
:10142000959587950A94E2F780FFF6CF0F2EF0E0AE
:10143000AF2EF0E0BF2EF0E0CF2EF0E0DF2EF02D4B
:101440000AC020E030E040E85FE3C601B5010E9439
:10145000AF0E5B016C0189B390E00C2E02C0959534
:1014600087950A94E2F780FDECCF0F2EF0E0EF2E87
:10147000F0E0FF2EF0E00F2FF0E01F2FF02D0AC05C
:1014800020E030E040E85FE3C801B7010E94AF0E02
:101490007B018C0189B390E00C2E02C09595879555
:1014A0000A94E2F780FFECCFA8019701C601B501CD
:1014B0000E94AF0E9B01AC01C601B5010E94520F04
:1014C00020E030E048EC52E40E94FD100E94BA0F88
:1014D000DC01CB01DF91CF911F910F91FF90EF9035
:1014E000DF90CF90BF90AF9008952F923F924F9290
:1014F0005F926F927F928F929F92AF92BF92CF92A4
:10150000DF92EF92FF920F931F93CF93DF93CDB7AC
:10151000DEB766970FB6F894DEBF0FBECDBF9E8BC9
:101520008D8BC982DA82EB82FC820D831E832F832E
:10153000388749875A876B877C87AD80BE80CF808C
:10154000D88489859A85AB85BC858D879E87AF8732
:10155000B88B69817A818B819C819B01AC010E944F
:10156000FD107B018C012D853E854F855889CA0170
:10157000B9010E94FD109B01AC01C801B7010E9496
:10158000AF0E0E9464111B012C019B01AC010E9453
:10159000FD107B018C01A6019501C601B5010E94D9
:1015A000FD109B01AC01C801B7010E94AF0E20E005
:1015B00030E041EE53E40E94AE0E20E030E041EE18
:1015C00053E40E94520F7B018C010E94A00E20E088
:1015D00030E044E353E40E94FD1026E53EE049E498
:1015E00050E40E94520F698B7A8B8B8B9C8B60939B
:1015F000B8017093B9018093BA019093BB01A20125
:101600009101C601B5010E94520F0E942A0F3B01B1
:101610004C01A8019701C801B7010E94FD109B0170
:10162000AC0160E070E080E89FE30E94AE0E0E9493
:10163000641120E030E040E751E40E94FD105B01BE
:101640006C0120E030E040E751E4C801B7010E949E
:10165000FD1020E030E040E751E40E94AF0E9B0116
:10166000AC01C601B5010E94520F0E942A0F9B01D6
:10167000AC01C401B3010E94AE0E7B018C016093EA
:10168000B4017093B5018093B6019093B70120E047
:1016900030E040E050E00E94431088235CF4D80121
:1016A000C701B0588093B4019093B501A093B601DF
:1016B000B093B70120E030E044E353E46091B4011B
:1016C0007091B5018091B6019091B7010E94FD1013
:1016D00029EF3FE049E450E40E94520F7B018C0166
:1016E0006093B4017093B5018093B6019093B701F4
:1016F000A20191016D857E858F8598890E94520F88
:101700000E94130F20E030E044E353E40E94FD10F8
:1017100029EF3FE049E450E40E94520F6093BC017E
:101720007093BD018093BE019093BF01A801970102
:1017300069897A898B899C890E94AE0E20E030E00D
:1017400044EB52E40E94AE0E6093C0017093C1015D
:101750008093C2019093C30161E080E00E945C0924
:10176000C801B7010E94BA0FDC01CB0165E070E04F
:101770000E94FB086091B8017091B9018091BA0193
:101780009091BB010E94BA0F7B018C0161E087E060
:101790000E945C0965E070E0C7010E94FB0860E000
:1017A00087E00E945C096091BC017091BD0180914D
:1017B000BE019091BF010E94BA0FDC01CB0165E030
:1017C00070E00E94FB0860E080E00E945C09C201BA
:1017D000B1010E94BA0FDC01CB0165E070E00E940C
:1017E000FB08ED89FE89A4EBB1E080E10D90019248
:1017F0008150E1F78D899E8966960FB6F894DEBF19
:101800000FBECDBFDF91CF911F910F91FF90EF9051
:10181000DF90CF90BF90AF909F908F907F906F9010
:101820005F904F903F902F900895AF92BF92CF92CC
:10183000DF92EF92FF920F931F93CF93DF93CDB779
:10184000DEB760970FB6F894DEBF0FBECDBF7B0149
:101850005A0121B33FEF31BB2AB32ABB27B337BBB1
:1018600024B334BBAA2797FDA095BA2FBC01CD01A4
:101870000E94ED0F6093A8017093A9018093AA01C3
:101880009093AB010027F7FC0095102FC801B7011A
:101890000E94ED0F6093AC017093AD018093AE0197
:1018A0009093AF01CC24B7FCC094DC2CC601B501E9
:1018B0000E94ED0F6093B0017093B1018093B2016B
:1018C0009093B301C090A801D090A901E090AA0123
:1018D000F090AB010091AC011091AD012091AE01EF
:1018E0003091AF014091B0015091B1016091B201CE
:1018F0007091B3015E010894A11CB11CC5010E9446
:10190000750AA4EBB1E0F50180E101900D928150E0
:10191000E1F72091BC013091BD014091BE01509191
:10192000BF0160E070E084EB92E40E94AE0E7B01A8
:101930008C0120E030E040E85FE30E944710181679
:1019400044F4C801B7010E94BA0FDC01CB010E9428
:101950005308E090B401F090B5010091B6011091E8
:10196000B70120E030E040E85FE3C801B7010E9422
:101970004710181644F4C801B7010E94BA0FDC01E1
:10198000CB010E943608E090B801F090B9010091B7
:10199000BA011091BB0120E030E040E85FE3C801EC
:1019A000B7010E944710181644F4C801B7010E94FD
:1019B000BA0FDC01CB010E94460860960FB6F8947E
:1019C000DEBF0FBECDBFDF91CF911F910F91FF9072
:1019D000EF90DF90CF90BF90AF90089580E487BBE9
:1019E0008DB90895779BFECF8FB190E0089580EA7E
:1019F00087BB81E58DB908958FB9779BFECF089598
:101A0000A8E0B0E0E6E0FDE00C9405127B018C015B
:101A1000611571058105910519F482E089835AC029
:101A200083E089838EE1C82ED12CDC82CB82ED82CB
:101A3000FE820F831887C801B7010E94730DBC0195
:101A40006150704077FF33C0EE27FF27E61BF70B8E
:101A500020E030E040E050E081E090E0A0E0B0E045
:101A60000E2E04C0880F991FAA1FBB1F0A94D2F71D
:101A70000197A109B1098E219F21A023B1230097CD
:101A8000A105B10521F021E030E040E050E004C0C4
:101A900016950795F794E794EA95D2F72E293F29F2
:101AA000402B512B2D833E834F8358870FC06115E8
:101AB000710581F0062E04C0EE0CFF1C001F111FE3
:101AC0000A94D2F7ED82FE820F831887C61AD70ACE
:101AD000DC82CB821A82CE0101960E94C00DE8E022
:101AE00028960C942112EF92FF920F931F939B0163
:101AF000AC01203080E0380781E0480780E05807DB
:101B000080F42F3F31054105510509F020F4EE2402
:101B1000FF24870119C068E0E62EF12C012D112D5C
:101B200013C0203080E0380780E0480781E0580784
:101B300030F490E1E92EF12C012D112D05C088E142
:101B4000E82EF12C012D112D80E290E0A0E0B0E014
:101B50008E199F09A00BB10B04C056954795379578
:101B60002795EA94D2F7F901E056FF4F2081821BB6
:101B70009109A109B1091F910F91FF90EF9008956C
:101B80009F92AF92BF92CF92DF92EF92FF920F930C
:101B90001F93EE24FF248701FC01248135814681B7
:101BA000578191808081823010F44061A2C08430DE
:101BB00009F49BC0823029F420E030E040E050E09E
:101BC00005C0211531054105510519F4E0E0F0E0AB
:101BD00092C0828193816FEF823896070CF05AC0D1
:101BE00062E87FEF681B790B6A3171052CF020E009
:101BF00030E040E050E02AC0AA24BB24650181E027
:101C000090E0A0E0B0E0062E04C0880F991FAA1F44
:101C1000BB1F0A94D2F70197A109B109822393232C
:101C2000A423B5230097A105B10529F071E0A72EE3
:101C3000B12CC12CD12C04C05695479537952795CA
:101C40006A95D2F72A293B294C295D29DA01C90175
:101C50008F779070A070B07080349105A105B105A8
:101C600039F427FF09C0205C3F4F4F4F5F4F04C03E
:101C7000215C3F4F4F4F5F4F80E090E0203060E0AD
:101C8000360760E0460760E4560710F081E090E018
:101C9000FC0123C08038910544F5FC01E158FF4F59
:101CA000DA01C9018F779070A070B070803491050F
:101CB000A105B10539F427FF09C0205C3F4F4F4F04
:101CC0005F4F04C0215C3F4F4F4F5F4F57FF05C030
:101CD0005695479537952795319687E056954795C0
:101CE000379527958A95D1F706C020E030E040E08F
:101CF00050E0EFEFF0E0E22EF32E942F9F77802F4D
:101D00008078892B9E2F9795992797958F77082F05
:101D1000092B9E2F9695812F8078892B9794992453
:101D200097948F77182F1929C801B7011F910F9128
:101D3000FF90EF90DF90CF90BF90AF909F9008956D
:101D40009F939F7785D10F9000203AF49058A2EA94
:101D50002AED3FE049E450E413D00EC25058BB27AF
:101D6000AA270ED009C2FAD130F0FFD120F031F409
:101D70009F3F11F41EF4B9C10EF4E095E7FBAFC12B
:101D8000E92F0BD280F3BA17620773078407950710
:101D900018F071F49EF523C20EF4E0950B2EBA2FC5
:101DA000A02D0B01B90190010C01CA01A001112461
:101DB000FF27591B99F0593F50F4503E68F11A160D
:101DC000F040A22F232F342F4427585FF3CF46959E
:101DD00037952795A795F0405395C9F77EF41F16C0
:101DE000BA0B620B730B840BBAF09150A1F0FF0F8A
:101DF000BB1F661F771F881FC2F70EC0BA0F621F76
:101E0000731F841F48F4879577956795B795F79565
:101E10009E3F08F0B3CF9395880F08F09927EE0FF7
:101E20009795879508959F939F77EEE389379E074F
:101E300020F4E4E5F0E081D109C00AD19058A2EA8B
:101E40002AED3FE049EC5FE39BDF96D10F9007FC62
:101E500090580895DF93DD27B92FBF7740E85FE3FF
:101E60001616170648075B0710F4D92FBFD19F93AA
:101E70008F937F936F9372D2E8E6F0E039D17CD1F3
:101E80002F913F914F915F91C4D1DD2349F090583C
:101E9000A2EA2AED3FE049EC5FE3D0785D2770DFEE
:101EA000DF916AC10CD068C160D140F057D130F0E9
:101EB00021F45F3F19F013C1511192C116C16DD1C8
:101EC00098F39923C9F35523B1F3951B550BBB2701
:101ED000AA2762177307840738F09F5F5F4F220FAE
:101EE000331F441FAA1FA9F333D00E2E3AF0E0E8A7
:101EF00030D091505040E695001CCAF729D0FE2FF3
:101F000027D0660F771F881FBB1F26173707480784
:101F1000AB07B0E809F0BB0B802DBF01FF2793583A
:101F20005F4F2AF09E3F510568F0D9C059C15F3F0D
:101F3000ECF3983EDCF3869577956795B795F79522
:101F40009F5FC9F7880F911D9695879597F908951A
:101F5000E1E0660F771F881FBB1F621773078407B6
:101F6000BA0720F0621B730B840BBA0BEE1F88F7C5
:101F7000E095089504D06894B11132C1089515D147
:101F800088F09F5790F0B92F9927B751A0F0D1F062
:101F9000660F771F881F991F1AF0BA95C9F712C0EC
:101FA000B13081F01CD1B1E0089519C1672F782FAD
:101FB0008827B85F39F0B93FCCF386957795679558
:101FC000B395D9F73EF490958095709561957F4FC4
:101FD0008F4F9F4F0895E89409C097FB3EF490956A
:101FE0008095709561957F4F8F4F9F4F9923A9F0F2
:101FF000F92F96E9BB279395F69587957795679581
:10200000B795F111F8CFFAF4BB0F11F460FF1BC0C4
:102010006F5F7F4F8F4F9F4F16C0882311F096E957
:1020200011C0772321F09EE8872F762F05C0662305
:1020300071F096E8862F70E060E02AF09A95660FBE
:10204000771F881FDAF7880F9695879597F9089577
:10205000DF93CF931F930F938B01EC01E5E9F0E041
:1020600047D08AD09801AE018B01EC0160E070E0AE
:1020700080E89FE373DE28D19801AE010F911F9194
:10208000CF91DF91C6C007D008F481E0089503D056
:1020900008F48FEF0895990F0008550FAA0BE0E898
:1020A000FEEF16161706E807F907C0F0121613061A
:1020B000E407F50798F0621B730B840B950B39F45A
:1020C0000A2661F0232B242B252B21F408950A26C0
:1020D00009F4A140A6958FEF811D811D089597F900
:1020E0009F6780E870E060E008959FEF80EC0895BE
:1020F000DF93CF931F930F93FF92EF92DF927B01B9
:102100008C01689405C0DA2EEF0183D0FE01E894BB
:10211000A5912591359145915591AEF3EF0130DEB2
:10212000FE019701A801DA9479F7DF90EF90FF9014
:102130000F911F91CF91DF9108959F938F937F937C
:102140006F93FF93EF939B01AC0157D0EF91FF91F9
:10215000CFDF2F913F914F915F914FC000240A94A0
:102160001616170618060906089500240A94121672
:102170001306140605060895092E0394000C11F4A5
:10218000882352F0BB0F40F4BF2B11F460FF04C052
:102190006F5F7F4F8F4F9F4F089557FD9058440FAB
:1021A000551F59F05F3F71F04795880F97FB991FB6
:1021B00061F09F3F79F08795089512161306140673
:1021C000551FF2CF4695F1DF08C016161706180600
:1021D000991FF1CF86957105610508940895E894DB
:1021E000BB2766277727CB0197F908959B01AC01A0
:1021F00060E070E080E89FE355CE0BD0BDCFAEDF4E
:1022000028F0B3DF18F0952309F069CF6ECF1124C1
:10221000E7CFC3DFA0F3959FD1F3950F50E0551F93
:10222000629FF001729FBB27F00DB11D639FAA272B
:10223000F00DB11DAA1F649F6627B00DA11D661F7A
:10224000829F2227B00DA11D621F739FB00DA11D9B
:10225000621F839FA00D611D221F749F3327A00D55
:10226000611D231F849F600D211D822F762F6A2FF1
:1022700011249F5750408AF0E1F088234AF0EE0F76
:10228000FF1FBB1F661F771F881F91505040A9F783
:102290009E3F510570F023CFA3CF5F3FECF3983EF4
:1022A000DCF3869577956795B795F795E7959F5FEA
:1022B000C1F7FE2B880F911D9695879597F9089584
:1022C00011F40EF412CF4DC070DFD0F39923D9F37F
:1022D000CEF39F57550B87FF54D056959795B0E096
:1022E00020F4660F771F881FBB1F1F930F930024D6
:1022F0009001A0018001F001A0E80E0F1F1F0A1E2F
:10230000511D601B710B8009B50B48F4600F711FE4
:10231000801DB51F0E1B1F0B0A0A510907C02E0F87
:102320003F1F4A1F0E0F1F1F0A1E511D660F771FEA
:10233000881FBB1FA695F795E795F8F606171707B0
:1023400008065B07211D311D411D0F911F91B90129
:10235000842F9158880F9695879508959B01AC011D
:102360004CCF9F3F49F0915028F48695779567951B
:10237000B7959F5F80389F4F880F9695879597F9FF
:10238000089591505040660F771F881FD2F7089527
:10239000991B79E004C0991F961708F0961B881FB7
:1023A0007A95C9F780950895AA1BBB1B51E107C018
:1023B000AA1FBB1FA617B70710F0A61BB70B881FD5
:1023C000991F5A95A9F780959095BC01CD01089564
:1023D00097FB092E07260AD077FD04D0E5DF06D04B
:1023E00000201AF4709561957F4F0895F6F7909547
:1023F00081959F4F08952F923F924F925F926F92D7
:102400007F928F929F92AF92BF92CF92DF92EF9284
:10241000FF920F931F93CF93DF93CDB7DEB7CA1B05
:10242000DB0B0FB6F894DEBF0FBECDBF09942A8830
:10243000398848885F846E847D848C849B84AA84D8
:10244000B984C884DF80EE80FD800C811B81AA8165
:10245000B981CE0FD11D0FB6F894DEBF0FBECDBF30
:06246000ED010895FFCF1D
:102466000C12120C000000000C1204081E000000E2
:102476000A15110A040000000305090B0B181800C1
:102486001F0E0E04040404040101050515151500AC
:102496000E11111F1F1F1F0000000000000000008A
:1024A60000010202030303030404040404040404F5
:1024B60005050505050505050505050505050505C6
:1024C60006060606060606060606060606060606A6
:1024D6000606060606060606060606060606060696
:1024E6000707070707070707070707070707070776
:1024F6000707070707070707070707070707070766
:102506000707070707070707070707070707070755
:102516000707070707070707070707070707070745
:102526000808080808080808080808080808080825
:102536000808080808080808080808080808080815
:102546000808080808080808080808080808080805
:1025560008080808080808080808080808080808F5
:1025660008080808080808080808080808080808E5
:1025760008080808080808080808080808080808D5
:1025860008080808080808080808080808080808C5
:1025960008080808080808080808080808080808B5
:00000001FF
