S01000004E616E6F5F43616D2E7372656318
S11300000C9436000C9440000C9440000C94400076
S11300100C9440000C9440000C9440000C9440005C
S11300200C9440000C9440000C9440000C9440004C
S11300300C9440000C9440000C9440000C9440003C
S11300400C9440000C9440000C9440000C9440002C
S11300500C9440000C9440000C9440000C9440001C
S11300600C9440000C9440005244590011241FBECB
S1130070CFEFD8E0DEBFCDBF0E9442000C943D011B
S11300800C940000F894239AE6EBF0E080818F79D9
S1130090808383E48093B00089E08093B100109260
S11300A0B30087B1807F87B98AB183708AB92FEF93
S11300B08BE792E9215080409040E1F700C00000B6
S11300C0E9EBF0E080818C7F808388E48093B80042
S11300D01092C50081E08093C400E0ECF0E08081E0
S11300E08260808388E18093C10086E08093C200AF
S11300F00E942201C0ECD0E006EC10E0E8E6F0E05B
S11301009491888185FFFDCFD8019C93888185FFD8
S1130110FDCF319684918111F3CF4B9BFECF4B9948
S1130120FECFEFEDF1E002C0319740F39F01ADEC5B
S1130130BCEC0E942E01BC01769567957695679577
S113014076956795CB01880F991F660F771F660F09
S1130150771F660F771F680F791FCF01861B970BD8
S1130160BC0120E530E003C021503109E9F26115FA
S1130170710541F54A99FECF4A9BFECF4A99FECFBD
S113018046B199B14F70907F942BD8019C934A9BB0
S1130190FECF4A99FECF4A9BFECF4A99FECF4A9B97
S11301A0FECF4A99FECF4A9BFECF4A99FECF4A9B87
S11301B0FECF4A99FECF4A9BFECF4A99FECF4A9B77
S11301C0FECFD2CF4A99FECF4A9BFECF4A99FECFAB
S11301D04A9BFECF4A99FECF4A9BFECF4A99FECF57
S11301E04A9BFECF4A99FECF4A9BFECF4A99FECF47
S11301F04A9BFECF4A99FECF4A9BFECF4A99FECF37
S11302004A9BFECFB1CF259A90E285B1892785B963
S11302102FEF31EE84E0215030408040E1F700C000
S11302200000F3CF84EA8093BC00ECEBF0E0808123
S11302308823ECF78091B900887F883011F00E9400
S1130240030108950E94120184E98093BC008FE9A0
S11302509FE00197F1F700C000000895A29FB0014C
S1130260B39FC001A39F700D811D1124911DB29FE6
S1110270700D811D1124911D0895F894FFCF87
S9030000FC
