:100000000C9462000C948A000C948A000C948A0070
:100010000C948A000C948A000C948A000C948A0038
:100020000C948A000C948A000C948A000C948A0028
:100030000C948A000C948A000C948A000C948A0018
:100040000C940E010C948A000C945B020C94A20296
:100050000C948A000C948A000C948A000C948A00F8
:100060000C948A000C948A000000000024002700F1
:100070002A0000000000250028002B0000000000DE
:1000800023002600290004040404040404040202DA
:100090000202020203030303030301020408102007
:1000A0004080010204081020010204081020000012
:1000B0000007000201000003040600000000000029
:1000C0000000DF0311241FBECFEFD8E0DEBFCDBF9D
:1000D00011E0A0E0B1E0E4E8FCE002C005900D9280
:1000E000A231B107D9F711E0A2E1B1E001C01D9240
:1000F000A13CB107E1F710E0C4ECD0E004C02297C6
:10010000FE010E943C06C23CD107C9F70E9435049B
:100110000C9440060C940000FF920F931F93CF9312
:10012000DF93F82E00E010E0C0E0D0E08F2D0E94B9
:10013000F901080F191F2196CA30D105B9F7C80176
:100140006AE070E00E94D605CB01DF91CF911F914C
:100150000F91FF900895AF92BF92CF92DF92EF92EE
:10016000FF920F931F9382E090E00E948C00909387
:1001700013018093120100D000D0AA2797FDA0950B
:10018000BA2F2FEF30E040E050E0EDB7FEB721830B
:10019000328343835483BC01CD0120E030E040E052
:1001A00050E0EFEFEE2EE3E0FE2E012D112DAA24FC
:1001B000BB2465010E946D057093150160931401C5
:1001C0000F900F900F900F9060911201709113019A
:1001D0008FE191E04AE050E00E944E0568EC70E04B
:1001E00080E090E00E9491011F910F91FF90EF90AD
:1001F000DF90CF90BF90AF9008958FE191E040E8FD
:1002000055E260E070E00E94D20285E061E00E9469
:100210001B0286E061E00E941B0208951F920F926C
:100220000FB60F9211242F933F938F939F93AF9309
:10023000BF9380911A0190911B01A0911C01B09174
:100240001D0130911E010196A11DB11D232F2D5FAF
:100250002D3720F02D570196A11DB11D20931E01B1
:1002600080931A0190931B01A0931C01B0931D0170
:100270008091160190911701A0911801B091190178
:100280000196A11DB11D8093160190931701A093B3
:100290001801B0931901BF91AF919F918F913F9138
:1002A0002F910F900FBE0F901F901895789484B5E2
:1002B000826084BD84B5816084BD85B5826085BD62
:1002C00085B5816085BDEEE6F0E080818160808348
:1002D000E1E8F0E01082808182608083808181602B
:1002E0008083E0E8F0E0808181608083E1EBF0E0F2
:1002F000808184608083E0EBF0E080818160808396
:10030000EAE7F0E08081846080838081826080837E
:100310008081816080838081806880831092C100A9
:100320000895EF92FF920F931F93CF93DF937B017A
:100330008C013FB7F8948091160190911701A0911C
:100340001801B091190126B5A89B05C02F3F19F0DF
:100350000196A11DB11D3FBFBA2FA92F982F882745
:10036000820F911DA11DB11D52E0880F991FAA1F78
:10037000BB1F5A95D1F7EC0130C00E94B6053FB7BC
:10038000F8948091160190911701A0911801B091F5
:10039000190126B5A89B05C02F3F19F00196A11D94
:1003A000B11D3FBFBA2FA92F982F8827820F911D0B
:1003B000A11DB11D32E0880F991FAA1FBB1F3A95DE
:1003C000D1F78C1B9D0B885E9340B8F20894E1082E
:1003D000F10801091109C851DC4FE114F1040105CC
:1003E000110559F6DF91CF911F910F91FF90EF907A
:1003F0000895982F8E3008F09E50977080910001DC
:100400008295880F880F807C892B80937C00809157
:100410007A00806480937A0080917A0086FDFCCF18
:100420002091780040917900942F80E030E0282BD3
:10043000392BC9010895CF93DF93482F50E0CA01AB
:1004400086569F4FFC0134914A575F4FFA018491C1
:10045000882369F190E0880F991FFC01E859FF4F4C
:10046000A591B491FC01EE58FF4FC591D49166233C
:1004700051F42FB7F8948C91932F909589238C93F6
:10048000888189230BC0623061F42FB7F8948C9176
:10049000932F909589238C938881832B88832FBFFA
:1004A00006C09FB7F8948C91832B8C939FBFDF91EC
:1004B000CF91089508951F920F920FB60F921124B5
:1004C0002F933F934F938F939F93EF93FF9380913D
:1004D000C00082FD19C04091C60080913D01282FC7
:1004E00030E02F5F3F4F2F73307080913E0190E0DE
:1004F0002817390759F0E0913D01F0E0E15EFE4F29
:1005000042A320933D0102C08091C600FF91EF916C
:100510009F918F914F913F912F910F900FBE0F9010
:100520001F90189580913D0120913E0190E0805CE4
:100530009F4F821B91098F739070892B11F00E943D
:100540005A0208951F920F920FB60F9211242F9303
:100550008F939F93EF93FF9390913F018091400180
:10056000981731F48091C1008F7D8093C10010C035
:10057000E0914001F0E0EF57FE4F20818091400173
:1005800090E001968F739070809340012093C60095
:10059000FF91EF919F918F912F910F900FBE0F9030
:1005A0001F901895AF92BF92DF92EF92FF920F9338
:1005B0001F93CF93DF93EC017A018B01DD24403050
:1005C00081EE580780E0680780E0780711F0DD24AD
:1005D000D39491E0A92EB12CE889F989DD2069F046
:1005E000C5010C8C02C0880F991F0A94E2F7808322
:1005F00060E079E08DE390E005C0108260E874E887
:100600008EE190E0A80197010E94E9052150304059
:1006100040405040569547953795279580E12030CA
:10062000380720F0DD2011F0DD24D6CFEC85FD85E4
:100630003083EE85FF8520831D8EEA89FB8940810A
:1006400021E030E0C901088C02C0880F991F0A948C
:10065000E2F7482B4083EA89FB894081C901098C74
:1006600002C0880F991F0A94E2F7482B4083EA8959
:10067000FB894081C9010A8C02C0880F991F0A9426
:10068000E2F7482B4083EA89FB8980810B8C02C00A
:10069000220F331F0A94E2F7209528232083DF914D
:1006A000CF911F910F91FF90EF90DF90BF90AF908F
:1006B0000895FC01268D878D30E0205C3F4F281B7C
:1006C00031092F733070C9010895FC01968D878D13
:1006D000981719F42FEF3FEF06C0878DE80FF11D33
:1006E00082A1282F30E0C9010895DC015E969C911B
:1006F0005E975F968C915F97981719F42FEF3FEFF5
:1007000010C05F968C915F97FD01E80FF11D92A1DB
:100710005F968C915F978F5F8F735F968C93292F75
:1007200030E0C9010895DC015D968C915D978823C6
:1007300039F05096ED91FC915197808186FFF9CF69
:100740005D961C920895DC0190968C919097282FCD
:1007500030E02F5F3F4F2F73307091968C919197BF
:1007600090E028173907C9F390968C919097FD0176
:10077000E80FF11DEE59FF4F608390962C939097F0
:100780005296ED91FC915397208181E090E05B9629
:100790000C905B9702C0880F991F0A94E2F7282BF0
:1007A000208381E05D968C935D975096ED91FC914E
:1007B000519780818064808381E090E00895109259
:1007C00022011092210188EE93E0A0E0B0E0809336
:1007D000230190932401A0932501B093260185E085
:1007E00091E09093200180931F011092400180912D
:1007F000400180933F0110923E0180913E01809321
:100800003D0185EC90E090932C0180932B0184ECCA
:1008100090E090932E0180932D0180EC90E09093D6
:10082000300180932F0181EC90E09093320180930E
:10083000310182EC90E0909334018093330186EC97
:1008400090E0909336018093350184E080933701E6
:1008500083E08093380187E08093390185E08093BD
:100860003A0181E080933B010895CF93DF930E948A
:1008700056010E94FD00C2E9D2E00E94AB00209721
:10088000E1F30E949202F9CFCF92DF92EF92FF92B2
:100890000F931F93CF93DF937C016B018A01C0E01C
:1008A000D0E00FC0D6016D916D01D701ED91FC91A3
:1008B0000190F081E02DC7010995C80FD91F0150A3
:1008C00010400115110571F7CE01DF91CF911F91F5
:1008D0000F91FF90EF90DF90CF900895EF92FF92ED
:1008E0000F931F938C01DC01ED91FC910190F0813D
:1008F000E02D6DE009957C01D801ED91FC9101900E
:10090000F081E02DC8016AE009959C012E0D3F1D84
:10091000C9011F910F91FF90EF900895CF93DF933E
:10092000EC016115710519F420E030E00FC0DB0126
:100930000D900020E9F71197A61BB70BE881F9810C
:100940000280F381E02DAD0109959C01C901DF9181
:10095000CF9108954F925F927F928F929F92AF9224
:10096000BF92CF92DF92EF92FF920F931F93DF938C
:10097000CF93CDB7DEB7A1970FB6F894DEBF0FBE09
:10098000CDBF2C01742ECB01223008F42AE019A22D
:1009900031E2C32ED12CCC0EDD1E822E9924AA2446
:1009A000BB24672D752FA50194010E94E9057901EB
:1009B0008A01C801B701A50194010E94B705472D1E
:1009C000461B0894C108D1084A3014F4405D01C0A8
:1009D000495CF6014083E114F1040105110521F0A1
:1009E0007E2C5F2DC801DDCFC201B6010E948E04AE
:1009F000A1960FB6F894DEBF0FBECDBFCF91DF91A9
:100A00001F910F91FF90EF90DF90CF90BF90AF902C
:100A10009F908F907F905F904F900895CF92DF923C
:100A2000EF92FF920F931F93CF93DF93EC016A0134
:100A30007B012115310541F4E881F9810190F081B4
:100A4000E02D642F09951FC02A303105D1F477FFBE
:100A500017C0E881F9810190F081E02D6DE20995E0
:100A60008C0144275527BA014C195D096E097F098D
:100A7000CE012AE00E94AA049801280F391F04C061
:100A80002AE00E94AA049C01C901DF91CF911F9125
:100A90000F91FF90EF90DF90CF900895CF92DF926B
:100AA000EF92FF920F931F936C017B019A01002735
:100AB000F7FC0095102FB801A7010E940E058C01CC
:100AC000C6010E946E04080F191FC8011F910F91E3
:100AD000FF90EF90DF90CF9008952F923F924F922A
:100AE0005F926F927F928F929F92AF92BF92CF92BE
:100AF000DF92EF92FF920F931F93DF93CF93CDB7C7
:100B0000DEB73B014C0119012A016D897E898F896D
:100B1000988D6A197B098C099D09621A730A840AE7
:100B2000950AA40193010E94B705E218F30804098D
:100B30001509A80197010E940B062A0D3B1D4C1DAB
:100B40005D1DB901CA01CF91DF911F910F91FF90F7
:100B5000EF90DF90CF90BF90AF909F908F907F905D
:100B60006F905F904F903F902F9008950895629FEF
:100B7000D001739FF001829FE00DF11D649FE00D95
:100B8000F11D929FF00D839FF00D749FF00D659FF6
:100B9000F00D9927729FB00DE11DF91F639FB00DF5
:100BA000E11DF91FBD01CF011124089597FB092E06
:100BB00007260AD077FD04D049D006D000201AF4C9
:100BC000709561957F4F0895F6F7909581959F4FA9
:100BD0000895A1E21A2EAA1BBB1BFD010DC0AA1F7E
:100BE000BB1FEE1FFF1FA217B307E407F50720F096
:100BF000A21BB30BE40BF50B661F771F881F991F11
:100C00001A9469F760957095809590959B01AC0159
:100C1000BD01CF01089597FB092E05260ED057FD83
:100C200004D0D7DF0AD0001C38F450954095309599
:100C300021953F4F4F4F5F4F0895F6F79095809560
:100C4000709561957F4F8F4F9F4F0895AA1BBB1BD7
:100C500051E107C0AA1FBB1FA617B70710F0A61BBC
:100C6000B70B881F991F5A95A9F780959095BC01DD
:100C7000CD010895EE0FFF1F0590F491E02D09942A
:100C8000F894FFCF0100000000A30344045903754A
:100C9000036503930300FFFFFFFFFFFFFFFFFFFF5D
:100D000007C01D830C8388819981B7010E949700D9
:100D1000CE01DF91CF911F910F91FF90EF90089539
:100D2000CF93DF93EC01198218821B821A821D82F5
:100D30001C826115710551F0DB010D900020E9F76F
:100D40001197A61BB70BAD010E946F06DF91CF91E3
:100D50000895FC01808191810E944C0708950F93B2
:100D60001F93CF93DF93BC018230910510F462E0B2
:100D700070E0E091D801F091D90140E050E0A0E0AE
:100D8000B0E024C08081918186179707D0F0861744
:100D9000970771F482819381109729F013969C93A1
:100DA0008E9312972CC09093D9018093D80127C0BD
:100DB0004115510519F08417950718F48D01AC0100
:100DC000EF01DF01828193819C01F9013097D1F617
:100DD00041155105F9F0CA01861B970B8430910526
:100DE00080F48A819B810115110521F0F80193831C
:100DF000828304C09093D9018093D801FE0132967A
:100E000045C0FE01E80FF91F619371930297998322
:100E100088833CC08091D6019091D701892B41F401
:100E200080910B0190910C019093D7018093D60192
:100E300040910D0150910E014115510541F44DB7FE
:100E40005EB78091090190910A01481B590B2091CE
:100E5000D6013091D70124173507B0F4CA01821B9F
:100E6000930B8617970780F0AB014E5F5F4F841797
:100E7000950750F0420F531F5093D7014093D6016E
:100E8000F9016193719302C0E0E0F0E0CF01DF91DE
:100E9000CF911F910F910895CF93DF939C010097FD
:100EA00009F48FC0EC0122971B821A826091D8014D
:100EB0007091D9016115710581F488819981820F42
:100EC000931F2091D6013091D7012817390739F5A2
:100ED000D093D701C093D60174C0DB0140E050E04D
:100EE000AC17BD0708F1BB83AA83FE0121913191A4
:100EF000E20FF31FAE17BF0779F48D919C91119704
:100F0000280F391F2E5F3F4F3983288312968D910A
:100F10009C9113979B838A834115510571F4D0935B
:100F2000D901C093D8014DC012968D919C91139711
:100F3000AD01009711F0DC01D3CFDA011396DC93F9
:100F4000CE931297FA0121913191E20FF31FCE1740
:100F5000DF0769F488819981280F391F2E5F3F4F81
:100F6000FA01318320838A819B8193838283E0E02D
:100F7000F0E0DB0112968D919C911397009719F088
:100F8000BC01FD01F6CFAB014E5F5F4FDB018D91E0
:100F90009C91840F951F2091D6013091D70128177D
:100FA000390779F4309729F41092D9011092D801B9
:100FB00002C013821282425050405093D701409396
:100FC000D601DF91CF9108956F927F928F929F9279
:100FD000AF92BF92CF92DF92EF92FF920F931F9347
:100FE000CF93DF938C01009729F4CB010E94AF06C9
:100FF0008C01BBC08EEFE82E8FEFF82EE00EF11EB5
:101000004801860E971E8E149F0408F4ACC0D701C9
:101010004D915C91119746175707B8F0453051052F
:1010200008F4A3C0CA0104978617970708F49DC067
:1010300042505040461B570BF401419351936D931E
:101040007C93CF010E944C0790C05B01A41AB50AA3
:101050003801640E751EA091D801B091D901E0E06D
:10106000F0E0CC24DD2447C0A615B705A9F5CD9145
:10107000DC911197CE0102968A159B0568F1CE018D
:101080008A199B09029612962C91129713963C91FD
:10109000059758F0F40122833383CA19DB09D18301
:1010A000C083D7016D937C9309C04E5F5F4F4C0F97
:1010B0005D1FF70151834083C901FC01C114D104B4
:1010C00031F0D6011396FC93EE9312974EC0F09335
:1010D000D901E093D80149C08D919C911197E817EF
:1010E000F90708F4FC016D0112968C911297139682
:1010F0009C919C01D901109709F0B6CF8091D6013F
:101100009091D70186159705E9F4E617F707D0F413
:1011100020910D0130910E012115310541F42DB7BB
:101120003EB78091090190910A01281B390B821664
:101130009306C8F49092D7018092D601F70171838B
:10114000608313C0CB010E94AF06EC01009759F0F9
:10115000D7014D915C91B8010E948E00C8010E9498
:101160004C078E0102C000E010E0C801DF91CF9172
:101170001F910F91FF90EF90DF90CF90BF90AF90B5
:101180009F908F907F906F90089508955058BB273F
:10119000AA270ED04DC13ED130F043D120F031F41A
:1011A0009F3F11F41EF433C10EF4E095E7FB29C113
:1011B000E92F4FD180F3BA176207730784079507A9
:1011C00018F071F49EF567C10EF4E0950B2EBA2F5E
:1011D000A02D0B01B90190010C01CA01A00111243D
:1011E000FF27591B99F0593F50F4503E68F11A16E9
:1011F000F040A22F232F342F4427585FF3CF46957A
:1012000037952795A795F0405395C9F77EF41F169B
:10121000BA0B620B730B840BBAF09150A1F0FF0F65
:10122000BB1F661F771F881FC2F70EC0BA0F621F51
:10123000731F841F48F4879577956795B795F79541
:101240009E3F08F0B3CF9395880F08F09927EE0FD3
:101250009795879508950CD0EBC0E3D040F0DAD095
:1012600030F021F45F3F19F0CCC0511115C1CFC04F
:10127000F0D098F39923C9F35523B1F3951B550B7F
:10128000BB27AA2762177307840738F09F5F5F4F59
:10129000220F331F441FAA1FA9F333D00E2E3AF09A
:1012A000E0E830D091505040E695001CCAF729D0B4
:1012B000FE2F27D0660F771F881FBB1F2617370703
:1012C0004807AB07B0E809F0BB0B802DBF01FF2733
:1012D00093585F4F2AF09E3F510568F092C0DCC0E2
:1012E0005F3FECF3983EDCF3869577956795B7956D
:1012F000F7959F5FC9F7880F911D9695879597F988
:101300000895E1E0660F771F881FBB1F6217730700
:101310008407BA0720F0621B730B840BBA0BEE1F15
:1013200088F7E095089504D06894B111B5C0089588
:1013300098D088F09F5790F0B92F9927B751A0F017
:10134000D1F0660F771F881F991F1AF0BA95C9F759
:1013500012C0B13081F09FD0B1E008959CC0672FDA
:10136000782F8827B85F39F0B93FCCF38695779509
:101370006795B395D9F73EF49095809570956195F2
:101380007F4F8F4F9F4F0895E89409C097FB3EF41D
:1013900090958095709561957F4F8F4F9F4F9923C2
:1013A000A9F0F92F96E9BB279395F6958795779540
:1013B0006795B795F111F8CFFAF4BB0F11F460FF00
:1013C0001BC06F5F7F4F8F4F9F4F16C0882311F058
:1013D00096E911C0772321F09EE8872F762F05C06C
:1013E000662371F096E8862F70E060E02AF09A9507
:1013F000660F771F881FDAF7880F9695879597F9FC
:10140000089597F99F6780E870E060E008959FEF86
:1014100080EC089500240A9416161706180609068B
:10142000089500240A94121613061406050608955A
:10143000092E0394000C11F4882352F0BB0F40F4E2
:10144000BF2B11F460FF04C06F5F7F4F8F4F9F4F22
:10145000089557FD9058440F551F59F05F3F71F0A4
:101460004795880F97FB991F61F09F3F79F087950B
:101470000895121613061406551FF2CF4695F1DF94
:1014800008C0161617061806991FF1CF8695710524
:10149000610508940895E894BB2766277727CB0158
:1014A00097F908950BD0C4CFB5DF28F0BADF18F054
:1014B000952309F0A6CFABCF1124EECFCADFA0F35E
:1014C000959FD1F3950F50E0551F629FF001729FD9
:1014D000BB27F00DB11D639FAA27F00DB11DAA1FF8
:1014E000649F6627B00DA11D661F829F2227B00D45
:1014F000A11D621F739FB00DA11D621F839FA00DD0
:10150000611D221F749F3327A00D611D231F849F1F
:10151000600D211D822F762F6A2F11249F57504076
:101520008AF0E1F088234AF0EE0FFF1FBB1F661F11
:10153000771F881F91505040A9F79E3F510570F0CA
:1015400060CFAACF5F3FECF3983EDCF386957795AA
:101550006795B795F795E7959F5FC1F7FE2B880FC5
:10156000911D9695879597F9089597FB092E072663
:101570000AD077FD04D02ED006D000201AF4709542
:1015800061957F4F0895F6F7909581959F4F089547
:10159000A1E21A2EAA1BBB1BFD010DC0AA1FBB1F77
:1015A000EE1FFF1FA217B307E407F50720F0A21BE9
:1015B000B30BE40BF50B661F771F881F991F1A9456
:1015C00069F760957095809590959B01AC01BD0180
:1015D000CF010895AA1BBB1B51E107C0AA1FBB1F67
:1015E000A617B70710F0A61BB70B881F991F5A95AF
:1015F000A9F780959095BC01CD010895EE0FFF1FCE
:101600000590F491E02D099410E0C6ECD0E004C000
:10161000FE010E94000B2296C83CD107C9F7F8943E
:10162000FFCF313233000000C842018000DA0100F0
:101630000000000000CF0470058504A1049104BFE0
:101640000400FFFFFFFFFFFFFFFFFFFFFFFFFFFFA4
:10168000FD010DC0AA1FBB1FEE1FFF1FA217B3074E
:10169000E407F50720F0A21BB30BE40BF50B661F64
:1016A000771F881F991F1A9469F760957095809528
:1016B00090959B01AC01BD01CF010895EE0FFF1F76
:1016C0000590F491E02D099410E0C6ECD0E004C040
:1016D000FE010E94600B2296C83CD107C9F7F8941E
:1016E000FFCF0000C8420180005802000000000047
:1016F000000802A106000000000006A106B605D2FF
:1017000005C205F00500FFFFFFFFFFFFFFFFFFFF22
:10178000ED91FC910190F081E02D6DE009957C01D7
:10179000D801ED91FC910190F081E02DC8016AE043
:1017A00009959C012E0D3F1DC9011F910F91FF90BE
:1017B000EF900895AF92BF92CF92DF92EF92FF9297
:1017C0000F931F93CF93DF935C016B01EE24FF24F3
:1017D000C0E0D0E010C0D501ED91FC9100811181F5
:1017E000C601BE010E94360C682FC501F80109959B
:1017F000E80EF91E2196F60184819581C817D90754
:1018000050F3C701DF91CF911F910F91FF90EF909F
:10181000DF90CF90BF90AF900895EF92FF920F931B
:101820001F937C010E94DA0B8C01C7010E94BA0B46
:101830009C01200F311FC9011F910F91FF90EF9064
:101840000895FC019B01848195816817790728F42C
:10185000608171816115710529F41092810361E83D
:1018600073E002C0620F731FCB010895FC018481F5
:1018700095816817790748F40190F081E02D309741
:1018800021F0E60FF71F8081089580E008950F93FF
:101890001F93CF93DF93EC018B016F5F7F4F8881A4
:1018A00099810E942107009711F480E005C0998377
:1018B00088831B830A8381E0DF91CF911F910F9171
:1018C0000895CF93DF93EC0188819981892B29F0CA
:1018D0008A819B818617970760F4CE010E94470C8E
:1018E000882341F08C819D81892B19F4E881F9814D
:1018F000108281E0DF91CF910895CF93DF93EC01C7
:1019000088819981009711F00E94890619821882B6
:101910001D821C821B821A82DF91CF910895EF9263
:10192000FF920F931F93CF93DF93EC017B018A010A
:10193000BA010E94610C882321F4CE010E947D0C23
:1019400007C01D830C8388819981B7010E9498008C
:10195000CE01DF91CF911F910F91FF90EF900895ED
:10196000CF93DF93EC01198218821B821A821D82A9
:101970001C826115710551F0DB010D900020E9F723
:101980001197A61BB70BAD010E948F0CDF91CF9171
:101990000895FC01808191810E9489060895505824
:1019A000BB27AA270ED01CC10DD130F012D120F0D8
:1019B00031F49F3F11F41EF402C10EF4E095E7FBF1
:1019C000F8C0E92F1ED180F3BA17620773078407A6
:1019D000950718F071F49EF536C10EF4E0950B2EC4
:1019E000BA2FA02D0B01B90190010C01CA01A00171
:1019F0001124FF27591B99F0593F50F4503E68F1CC
:101A00001A16F040A22F232F342F4427585FF3CF0C
:101A1000469537952795A795F0405395C9F77EF4DD
:101A20001F16BA0B620B730B840BBAF09150A1F026
:101A3000FF0FBB1F661F771F881FC2F70EC0BA0FAC
:101A4000621F731F841F48F4879577956795B79534
:101A5000F7959E3F08F0B3CF9395880F08F099272C
:101A6000EE0F9795879508950CD0BAC0B2D040F08C
:101A7000A9D030F021F45F3F19F09BC05111E4C0B0
:101A80009EC0BFD098F39923C9F35523B1F3951B9A
:101A9000550BBB27AA2762177307840738F09F5F8F
:101AA0005F4F220F331F441FAA1FA9F333D00E2EFE
:101AB0003AF0E0E830D091505040E695001CCAF76B
:101AC00029D0FE2F27D0660F771F881FBB1F261730
:101AD00037074807AB07B0E809F0BB0B802DBF0103
:101AE000FF2793585F4F2AF09E3F510568F061C071
:101AF000ABC05F3FECF3983EDCF386957795679536
:101B0000B795F7959F5FC9F7880F911D96958795B3
:101B100097F90895E1E0660F771F881FBB1F6217D2
:101B200073078407BA0720F0621B730B840BBA0B90
:101B3000EE1F88F7E0950895E89409C097FB3EF4FE
:101B400090958095709561957F4F8F4F9F4F99230A
:101B5000A9F0F92F96E9BB279395F6958795779588
:101B60006795B795F111F8CFFAF4BB0F11F460FF48
:101B70001BC06F5F7F4F8F4F9F4F16C0882311F0A0
:101B800096E911C0772321F09EE8872F762F05C0B4
:101B9000662371F096E8862F70E060E02AF09A954F
:101BA000660F771F881FDAF7880F9695879597F944
:101BB000089597F99F6780E870E060E008959FEFCF
:101BC00080EC089500240A941616170618060906D4
:101BD000089500240A9412161306140605060895A3
:101BE000092E0394000C11F4882352F0BB0F40F42B
:101BF000BF2B11F460FF04C06F5F7F4F8F4F9F4F6B
:101C0000089557FD9058440F551F59F05F3F71F0EC
:101C10004795880F97FB991F61F09F3F79F0879553
:101C20000895121613061406551FF2CF4695F1DFDC
:101C300008C0161617061806991FF1CF869571056C
:101C4000610508940895E894BB2766277727CB01A0
:101C500097F90895A1E21A2EAA1BBB1BFD010DC026
:101C6000AA1FBB1FEE1FFF1FA217B307E407F5074C
:101C700020F0A21BB30BE40BF50B661F771F881F28
:101C8000991F1A9469F760957095809590959B01BE
:101C9000AC01BD01CF010895EE0FFF1F0590F49137
:101CA000E02D099410E0C8ECD0E004C0FE010E94D1
:101CB0004E0E2296CA3CD107C9F7F894FFCF3132B5
:101CC00033000000C84280008603000001000000CD
:101CD000001602900B000000001004DF039803A11F
:101CE00003B603C70300000000EF0A900BA50AC16A
:101CF0000AB10ADF0A00FFFFFFFFFFFFFFFFFFFF40
:101D00001806991FF1CF869571056105089408950D
:101D1000E894BB2766277727CB0197F908950BD066
:101D2000C4CFB5DF28F0BADF18F0952309F0A6CFAD
:101D3000ABCF1124EECFCADFA0F3959FD1F3950F5F
:101D400050E0551F629FF001729FBB27F00DB11D3F
:101D5000639FAA27F00DB11DAA1F649F6627B00DCF
:101D6000A11D661F829F2227B00DA11D621F739FB8
:101D7000B00DA11D621F839FA00D611D221F749FC6
:101D80003327A00D611D231F849F600D211D822F0D
:101D9000762F6A2F11249F5750408AF0E1F0882354
:101DA0004AF0EE0FFF1FBB1F661F771F881F915061
:101DB0005040A9F79E3F510570F060CFAACF5F3F1A
:101DC000ECF3983EDCF3869577956795B795F79594
:101DD000E7959F5FC1F7FE2B880F911D969587951C
:101DE00097F9089597FB092E07260AD077FD04D0AE
:101DF0002ED006D000201AF4709561957F4F08957B
:101E0000F6F7909581959F4F0895A1E21A2EAA1B8F
:101E1000BB1BFD010DC0AA1FBB1FEE1FFF1FA2179A
:101E2000B307E407F50720F0A21BB30BE40BF50B97
:101E3000661F771F881F991F1A9469F76095709520
:101E4000809590959B01AC01BD01CF010895AA1B1F
:101E5000BB1B51E107C0AA1FBB1FA617B70710F095
:101E6000A61BB70B881F991F5A95A9F780959095C7
:101E7000BC01CD010895EE0FFF1F0590F491E02DF8
:101E8000099410E0C8ECD0E004C0FE010E943D0FB0
:101E90002296CA3CD107C9F7F894FFCF68617369ED
:101EA000623132000000C84280008A030000010055
:101EB0000000004A02C40B0000000044041304CCDC
:101EC00003D503EA03FB0300000000230BC40BD976
:101ED0000AF50AE50A130B00FFFFFFFFFFFFFFFFF4
:101F0000829FE00DF11D649FE00DF11D929FF00D89
:101F1000839FF00D749FF00D659FF00D9927729FC0
:101F2000B00DE11DF91F639FB00DE11DF91FBD014B
:101F3000CF011124089597FB092E07260AD077FDBB
:101F400004D02ED006D000201AF4709561957F4FF2
:101F50000895F6F7909581959F4F0895A1E21A2E66
:101F6000AA1BBB1BFD010DC0AA1FBB1FEE1FFF1F3D
:101F7000A217B307E407F50720F0A21BB30BE40B8D
:101F8000F50B661F771F881F991F1A9469F76095D4
:101F90007095809590959B01AC01BD01CF0108958E
:101FA000AA1BBB1B51E107C0AA1FBB1FA617B7077F
:101FB00010F0A61BB70B881F991F5A95A9F780959B
:101FC0009095BC01CD010895EE0FFF1F0590F4918F
:101FD000E02D099410E0C8ECD0E004C0FE010E949E
:101FE000E60F2296CA3CD107C9F7F894FFCF686183
:101FF0007369623132000000C84280008A03000029
:1020000001000000004D02C70B000000004704164D
:1020100004CF03D803ED03FE0300000000260BC726
:102020000BDC0AF80AE80A160B00FFFFFFFFFFFFB0
:102080002F923F924F925F926F927F928F929F9288
:10209000AF92BF92CF92DF92EF92FF920F931F9376
:1020A000DF93CF93CDB7DEB765970FB6F894DEBF59
:1020B0000FBECDBF8B8B8091A205882309F0ABC1E9
:1020C00025EAA22E26E0B22E6624772488249924BD
:1020D000CC24DD242E010894411C511C3B89232F64
:1020E00030E03D8B2C8B8C2D0E94BA25F201EC0D3B
:1020F000FD1D80838C899D890C2C02C09595879548
:102100000A94E2F780FF15C0F50160817181828138
:10211000938120E030E040EC5FEB0E9489387B0146
:102120008C01B301C401A80197010E944E38181612
:1021300024F4C301D4017C018D010894C11CD11C7D
:1021400024E030E0A20EB31E33E0C316D10429F020
:10215000D801C70137014D01C6CFA090C406B09089
:10216000C506C090C606D090C70663E0688B4424BD
:102170004394CE01049666EA75E00E943133809163
:10218000BF06E82FF0E0FA8BE98BDE01149696EAA1
:10219000292E95E0392EB101552450E020E030E0A1
:1021A0003701480197FA909497F890948C899D890B
:1021B000022E02C0959587950A94E2F780FF28C009
:1021C000FB01108211821282138289899A89022E60
:1021D00002C0959587950A94E2F780FF03C04420DA
:1021E00019F008C0442031F0ED92FD920D931C933C
:1021F000139705C06D927D928D929C9213975F5FAD
:10220000E1E0F0E0EC0FFD1FE20FF31F8081582AA0
:102210002F5F3F4F14966C5F7F4F2330310531F6AF
:10222000652F70E080E090E00E94E0360E94163951
:102230007B018C015092BF050E94AF17C601B5010A
:10224000A80197010E948938AB01BC01CE01049618
:1022500020E00E9435190E94D7290E945529442068
:1022600011F10E940F1020E030E0482F50E0E1E033
:10227000F0E0EC0FFD1FE20FF31FE081852D8E23B0
:1022800059F0BA01022E02C0759567950A94E2F7DB
:1022900060FF02C0E0955E222F5F3F4F2330310583
:1022A00031F75092BF050E94D729809101018473B4
:1022B000D1F080910101807341F4442009F0A6C05F
:1022C0000E940F107B89872329F00E945F120E94D1
:1022D000F61DA1C09FB7F894809101018B7F809378
:1022E00001019FBF04C0852D8C7109F0B8CF0E94F9
:1022F000A0300E94511C8091C8069091C9060E948E
:102300004D1781E04826C9F06091CA067091CB064E
:102310008091CC069091CD0620E030E040EA50E478
:102320000E9489387B018C01A090C006B090C10644
:10233000C090C206D090C30610C0E090CA06F090CC
:10234000CB060091CC061091CD06A090C406B090AB
:10235000C506C090C606D090C7069889992319F083
:102360009150988B06CF8091BF06482E5524A0909F
:10237000CA06B090CB06C090CC06D090CD063501F1
:10238000460197FA909497F8909401E816E0EE24AD
:10239000FF248C899D890E2C02C0959587950A94FF
:1023A000E2F780FF23C0C2010E2C02C095958795ED
:1023B0000A94E2F780FF0AC0C601B501F80124A122
:1023C00035A146A157A10E94673502C0C401B301DF
:1023D000F80120813181428153810E9489380E9415
:1023E0005938F10160837183828393830894E11CDF
:1023F000F11C24E030E0220E331E0C5F1F4F33E04F
:10240000E316F10431F60E94AF1705C08091010177
:1024100082FF60CF5ACF65960FB6F894DEBF0FBE2D
:10242000CDBFCF91DF911F910F91FF90EF90DF9083
:10243000CF90BF90AF909F908F907F906F905F9064
:102440004F903F902F9008950E94E1240E946A28A7
:102450000E9493290E9402338EE1E2EAF5E0DF0157
:102460001D928A95E9F781E08093A2057894809186
:10247000BE0684FF03C081E08093A3050E9454251B
:102480000E943A0F0E94C6280E9407040E944E0F25
:102490000E94B61D0E94511C0E94A0300E94AF17DE
:1024A0000E94330F1092A2051092010110920201B6
:1024B0001092A4051092A5050E94421FDFCF8091C3
:1024C000010184FD27C08FB7F894909101019061BC
:1024D000909301018FBF0E94CE280E940A04909120
:1024E000A305892F8C7021F48091A405813091F48B
:1024F000943031F49FB7F89480910201806205C056
:102500009FB7F894809102018860809302019FBF79
:102510000E94743008950E946C0F84E00E94401065
:1025200083E00E9440100E94F61D8091A20588233E
:1025300021F40E94330F0E944E0F0895EF92FF92F4
:102540000F931F93CF93DF937B018C018091A305A1
:10255000823009F447C0C801B70120E030E040EA0A
:1025600051E40E9489380E941D370E94B436EB0165
:102570000E942B1FC801B70120E030E04AE754E475
:102580000E9489387B018C0182E390E0C89FB001F2
:10259000C99F700DD89F700D112480E090E00E94BB
:1025A000E0369B01AC01C801B7010E9466350E946C
:1025B0001D370E94B436DC01CB010E944D1700E9A3
:1025C00011E00EC00E94F61D8091A205882351F4EF
:1025D00084EF91E0F8013197F1F70197D9F721974E
:1025E000209781F7DF91CF911F910F91FF90EF908E
:1025F0000895DF92EF92FF920F931F93CF93DF9393
:10260000EC017A018B01D22E8091BE0685FF03C0BA
:10261000CE010E94770F8091A305823099F00E942D
:10262000F61D8091A205882369F40E94A5178823CE
:1026300019F00E94ED1DF3CFCE01B801A7012D2D99
:102640000E943519DF91CF911F910F91FF90EF906C
:10265000DF900895AF92BF92CF92DF92EF920F93E7
:102660001F93CF93DF93EC015A016B01122F8091DE
:10267000A305823009F466C00E942B1F1092BE058C
:10268000802F0E94B91D0E94CC1D882351F09FB756
:10269000F894809102018061809302019FBF0E94A3
:1026A000F61D8091A205882309F04CC0CE01B60129
:1026B000A501212F0E94F91281E0809300019FB7AC
:1026C000F894809101018260809301019FBF0E9474
:1026D000F61D8091A2058823A9F58091A305882382
:1026E000B1F7809100018130A9F4EE2051F0E2EBC6
:1026F000F5E0DF011C978CE00D9001928150E1F72D
:102700000CC09FB7F8948091020180618093020110
:102710009FBF03C081E08093BE05109200010E941C
:10272000F61D8091A205882369F40E94A0300E94C2
:10273000511C0E94AF17CE0166EA75E00E9431334A
:102740000E946D22DF91CF911F910F91EF90DF904A
:10275000CF90BF90AF9008952F923F924F925F928B
:102760006F927F928F929F92AF92BF92CF92DF92A1
:10277000EF92FF920F931F93DF93CF93CDB7DEB706
:10278000EF970FB6F894DEBF0FBECDBF9CAB8BABFF
:102790007EAB6DAB3A010FAB18AF29AF3AAFCBAE02
:1027A000DCAEEDAEFEAEAFAE9924880C991C880C61
:1027B000991C880D991D9AAB89AB9A01280D391D7A
:1027C00038AB2FA7D901AD90BD90CD90DC90C6015C
:1027D000B501E9A9FAA920813181428153810E9482
:1027E00067356DA37EA38FA398A765966FAD659798
:1027F000462E5524440C551C440C551C2BA93CA9B1
:10280000240D351D3EA72DA7C301840D951D9CA742
:102810008BA7DC01ED90FD900D911C91C801B701D3
:10282000F90120813181428153810E94673569A37A
:102830007AA38BA39CA3D601C501B0588D8F9E8F20
:10284000AF8FB8A3D801C701B058898F9A8FAB8FCB
:10285000BC8FADA9BEA98A0E9B1EF4016081718157
:10286000828193812DA13EA14FA158A50E9466357A
:102870003B014C012DA93EA9420E531ED2016D9180
:102880007D918D919C9129A13AA14BA15CA10E94BF
:1028900066355B016C016D8D7E8D8F8D98A1A601D3
:1028A00095010E9489387B018C01698D7A8D8B8D11
:1028B0009C8DA40193010E9489389B01AC01C80141
:1028C000B7010E9466351B012C016D8D7E8D8F8DA9
:1028D00098A1A40193010E9489387B018C01698D24
:1028E0007A8D8B8D9C8DA60195010E9489389B0164
:1028F000AC01C801B7010E9467359B01AC01C20160
:10290000B1010E94DA355B016C0167968FAD679764
:10291000882399F0C601B5012DEB37E346E055EB6E
:102920000E944E388823ECF0C601B5012BED3FE044
:1029300049EC50E40E94663512C0C601B5012DEB8A
:1029400037E346E055E30E944036181654F0C601BE
:10295000B5012BED3FE049EC50E40E9467355B0187
:102960006C01E090BA06F090BB060091BC06109195
:10297000BD066FA978AD89AD9AAD9B01AC010E94EF
:102980006735A80197010E9466359B01AC01C8011B
:10299000B7010E9489380E9416397B018C01C6015B
:1029A000B50120E030E040E05FE30E9489382FA9C4
:1029B00038AD49AD5AAD0E9489389F77A80197017B
:1029C0000E9447360E941D370E94B436788F6F8B65
:1029D0006115710509F487C1BFADBB2381F080E0AB
:1029E00090E00E94E0369B01AC016BAD7CAD8DADFB
:1029F0009EAD0E9489386BAF7CAF8DAF9EAF2F89A3
:102A0000388DB90180E090E00E94E0367B018C01B6
:102A1000C601B501A80197010E9447366B8B7C8BDC
:102A20008D8B9E8B6696EFAD6697F0E0EE0FFF1FE5
:102A3000EE0FFF1F8BA99CA98E0F9F1F9AA789A736
:102A4000ADA9BEA9EA0FFB1F6081718182819381CC
:102A5000E9A5FAA520813181428153810E94663522
:102A6000A80197010E9447366F87788B898B9A8BD4
:102A70006B897C898D899E899B01AC010E94893874
:102A80009B01AC0160E070E080E090E40E9466355C
:102A90005B016C016B897C898D899E892BEA3AEAFE
:102AA0004AE25EE30E9489387B018C01C601B501D0
:102AB00020E030E040E850E40E9467359B01AC0123
:102AC000C801B7010E9489386B877C878D879E87F4
:102AD000C601B50120E030E040E05FE30E948938A4
:102AE00069837A838B839C8321E030E03E832D834E
:102AF0009924F1C03BE0391508F446C06D8D7E8DF8
:102B00008F8D98A12B853C854D855E850E948938E7
:102B10007B018C01698D7A8D8B8D9C8D29813A8109
:102B20004B815C810E9489389B01AC01C801B701CF
:102B30000E9467357B018C016D8D7E8D8F8D98A1F4
:102B400029813A814B815C810E9489385B016C014B
:102B5000698D7A8D8B8D9C8D2B853C854D855E8511
:102B60000E9489389B01AC01C601B5010E946635FF
:102B70006D8F7E8F8F8F98A39394C701D801898F13
:102B80009A8FAB8FBC8F61C0AD81BE81BD0180E0EB
:102B900090E00E94E0362B893C894D895E890E9435
:102BA00089387B018C01C8010E9444366F83788785
:102BB00089879A87B701C8010E940C393B014C01F3
:102BC000EFA5F8A9E080F1800281138117FB109531
:102BD00017F91095ABA5BCA52D903D904D905C903C
:102BE000C801B7012F81388549855A850E948938E7
:102BF0005B016C01C201B101A40193010E948938FB
:102C00009B01AC01C601B5010E9467356D8F7E8FB7
:102C10008F8F98A3C801B701A40193010E9489383E
:102C20007B018C01C201B1012F81388549855A850C
:102C30000E9489389B01AC01C801B7010E9466352A
:102C4000698F7A8F8B8F9C8F99246DA17EA18FA124
:102C500098A52D8D3E8D4F8D58A10E946735E9A90D
:102C6000FAA9608371838283938369A17AA18BA17E
:102C70009CA1298D3A8D4B8D5C8D0E946735ADA549
:102C8000BEA56D937D938D939C931397E9A5FAA5AB
:102C900060817181828193812F85388949895A8920
:102CA0000E946735A9A5BAA56D937D938D939C93DA
:102CB00013978BA99CA94BAD5CAD6DAD7EAD2FADCF
:102CC0000E94F9128091A2058823B1F4ED81FE8162
:102CD0003196FE83ED832D813E818F89988D281753
:102CE000390708F407CF8DA99EA94BAD5CAD6DAD3A
:102CF0007EAD2FAD0E94F912EF960FB6F894DEBFAD
:102D00000FBECDBFCF91DF911F910F91FF90EF903C
:102D1000DF90CF90BF90AF909F908F907F906F90FB
:102D20005F904F903F902F9008956F927F928F9277
:102D30009F92AF92BF92CF92DF92EF92FF920F934A
:102D40001F93CF93DF934C013B015A01FB0180811C
:102D5000F401E80FF11DEF0189918D3229F4818191
:102D60002196CC24C39405C08B3211F48181219625
:102D7000CC2420E030E040E050E0DD24E0E070E0F2
:102D8000682F60536A30F8F4EF5FE930C0F47111D6
:102D9000DA94DA01C901F2E0880F991FAA1FBB1F5C
:102DA000FA95D1F7280F391F4A1F5B1F220F331FD7
:102DB000441F551F260F311D411D511D09C077238A
:102DC00039F4D39405C06E3F29F4772319F471E0E8
:102DD0008991D6CFEE2311F480E050C0CA01B90129
:102DE0000E94E0367B018C0120E030E040E050E0C2
:102DF0000E944036882369F42BC0C801B7012AE03D
:102E000037ED43E25CE30E9489387B018C01F2E0FC
:102E1000DF0E8FEFD8168CF3D81659F4C801B7011E
:102E20002DEC3CEC4CEC5DE30E9489387B018C017D
:102E30000FC0DD2069F0C801B70120E030E040E2BA
:102E400051E40E9489387B018C01DA941D149CF3B3
:102E5000CC2049F0D801C701B058F5018083918397
:102E6000A283B38305C0F501E082F182028313835C
:102E7000882D80958C0FF301808381E0DF91CF91C5
:102E80001F910F91FF90EF90DF90CF90BF90AF9088
:102E90009F908F907F906F90089520EA3FE004C04C
:102EA000F9013197F1F701970097D1F70895AF92A3
:102EB000BF92CF92DF92EF92FF920F931F937B010D
:102EC0008C0159016A01A80197010E9489387B0190
:102ED0008C01C601B501A60195010E9489389B01AC
:102EE000AC01C801B7010E9467350E9416391F91D5
:102EF0000F91FF90EF90DF90CF90BF90AF9008952B
:102F00002091E5038091E603821769F0922F9F5F7D
:102F1000923109F490E08091E803281711F490931E
:102F2000E8039093E50308959091E5038091E6030B
:102F3000891719F420E030E006C089E2989F9001DB
:102F400011242D5F3E4FC901089520E09091E503C3
:102F50008091E703981709F421E0822F089580916A
:102F6000A6059091A705A091A805B091A905809309
:102F7000E9039093EA03A093EB03B093EC038091F1
:102F8000AA059091AB05A091AC05B091AD058093D9
:102F9000ED039093EE03A093EF03B093F0038091C1
:102FA000AE059091AF05A091B005B091B1058093A9
:102FB000F1039093F203A093F303B093F403089505
:102FC0008091E6039091E503891710F0891B08951D
:102FD0008E5E891B08954F925F926F927F928F92BF
:102FE0009F92AF92BF92CF92DF92EF92FF920F9398
:102FF0001F93CF93DF938091E603882309F482E146
:10300000782E7A946090E803761409F4F2C089E28D
:10301000789E4001112483E091E0880E991EF4010E
:10302000A588B688C788D08C21A132A143A154A11C
:10303000CA01B9010E946735F40125A136A147A153
:1030400050A50E9489387B018C01B501C601A801F9
:1030500097010E94403687FD04C0D801C70157017F
:103060006D01C501D601F401818B928BA38BB48BCA
:10307000772011F432E1732E7A94761409F04EC061
:103080008091E503681609F050C00E94B5294DC033
:10309000769CE0011124CD5FDE4F772011F422E110
:1030A000722E7A948091E503781611F40E94B52966
:1030B000AD88BE88CF88D88C69897A898B899C89AC
:1030C000A60195010E944036882331F129A13AA139
:1030D0004BA15CA1CA01B9010E9467352DA13EA197
:1030E0004FA158A50E948938F4012189328943896A
:1030F00054890E9467357B018C01A60195010E94CD
:10310000403688232CF4E98AFA8A0B8B1C8B04C086
:10311000A98ABA8ACB8ADC8A4E0102C099E2692E5A
:103120008091E803781609F0B3CFA090E803BA2C99
:10313000B394F2E1BF1609F4BB2489E2A89E800192
:1031400011240D5F1E4F5090E60389E2482E4CC0BB
:10315000B49CE0011124CD5FDE4FF801C188D28814
:10316000E388F48869887A888B889C88C701B601CF
:10317000A40193010E94403688231CF5F80121A187
:1031800032A143A154A1CA01B9010E946735F801D7
:1031900025A136A147A150A50E9489389B01AC0109
:1031A000C701B6010E9467357B018C01A401930120
:1031B0000E94403688232CF4E98AFA8A0B8B1C8BF8
:1031C000AB2C69897A898B899C892D893E894F89A5
:1031D000588D0E944036882309F4AB2CB394F2E159
:1031E000BF1609F4BB248E01B51409F0B1CFA0922B
:1031F000E803DF91CF911F910F91FF90EF90DF9047
:10320000CF90BF90AF909F908F907F906F905F9086
:103210004F9008950E94B5298091E5038093E803BB
:103220000E94EB1708952091E5032F5F223109F4E6
:1032300020E08091E603281729F460E070E080E048
:1032400090E012C030E089E290E0289FF001299FD1
:10325000F00D389FF00D1124ED5FFE4F61897289EA
:10326000838994890E94163908952F923F924F9234
:103270005F926F927F928F929F92AF92BF92CF9206
:10328000DF92EF92FF920F931F93DF93CF93CDB70F
:10329000DEB7E0970FB6F894DEBF0FBECDBF98A79C
:1032A0008FA349A75AA76BA77CA7222E9091E6036C
:1032B00089E2989F4001112423E031E0820E931EA1
:1032C000D4011D961D921D921D921C92509780E074
:1032D00090E0A0E0B0E0F40185A396A3A7A3B0A777
:1032E000108289E996E7A6E9BEE781A392A3A3A38A
:1032F000B4A32401332466247724F301EF57F94F54
:10330000A080B180C280D380EFA1F8A5E60DF71DA3
:10331000C601B50120813181428153810E948938E3
:103320000E9459389B01AC01E1E0F0E0EC0FFD1F79
:10333000E60DF71D2083318342835383F301E75168
:10334000FC4F80819181A281B381281B390B4A0BEC
:103350005B0BDA01C90157FF07C088279927DC01F9
:10336000821B930BA40BB50BF20181839283A38381
:10337000B483F401E584F684078510898E159F05D2
:10338000A007B10710F4D801C701F401858796871B
:10339000A787B08BCA01B9010E94E236A601950148
:1033A0000E9447365B016C01EDE0F0E0EC0FFD1F81
:1033B000E60DF71D608371838283938320E030E004
:1033C00040E050E00E944036882344F4D4011C9130
:1033D000832D0E94C425182BF4011083D4019596E7
:1033E000ED90FD900D911C919897C601B501A60135
:1033F00095010E9489389B01AC01C801B7010E9468
:1034000067357B018C01CB01D801F40185A396A31C
:10341000A7A3B0A7339424E030E0620E731E420EDF
:10342000531E33E0331609F068CFB701C8010E947C
:1034300016397B018C01D40195966D937D938D9304
:103440009C9398971D968D919D910D90BC91A02D68
:103450000097A105B10509F40BC269A57AA58BA552
:103460009CA520E030E040E050E00E9440368823F8
:103470002CF489E996E7A6E9BEE71EC0222061F098
:1034800069A57AA58BA59CA5A80197010E948938FA
:1034900069A77AA78BA79CA769A57AA58BA59CA5E8
:1034A00020E030E040E85FE30E944036882344F4A7
:1034B00080E090E0A0E8BFE389A79AA7ABA7BCA7EC
:1034C00060E070E080E89FE3A80197010E94473622
:1034D0006BA37CA38DA39EA3DE011D96BE8FAD8F33
:1034E000E5EFF3E0FC8FEB8F2DE836E03A8F298F84
:1034F00080E090E0A0E0B0E08F8F98A3A9A3BAA3EA
:10350000DE015996B8ABAFA7ED8DFE8DE080F1805E
:1035100002811381C801B70120E030E040E050E0B3
:103520000E944036882309F47CC0C801B7012BA152
:103530003CA14DA15EA10E9489382B013C01AD8DBB
:10354000BE8D6D937D938D939C93139760E070E097
:1035500080E89FE3A30192010E9447365B016C0162
:10356000E894D7F8C601B501E98DFA8D2081318143
:10357000428153810E9489387B018C0169A57AA51B
:103580008BA59CA5A80197010E94403687FD04C029
:10359000E9A6FAA60BA71CA7D4019196BC91BDA7DA
:1035A000F401F2A1FEA7D40193962C9093979496E0
:1035B0003C90C601B501E98DFA8D24853585468597
:1035C00057850E9489387B018C016DA57EA5C101BC
:1035D000A80197010E94403687FD05C0D801C701A8
:1035E000EDA69EA71D018DA59EA5D101F40181A385
:1035F00092A3A3A3B4A3C301B201AB8DBC8D2D9143
:103600003D914D915C910E9489389B01AC016F8D79
:1036100078A189A19AA10E9466356F8F78A389A3AA
:103620009AA3ED8DFE8D3496FE8FED8F2B8D3C8D04
:103630002C5F3F4F3C8F2B8F898D9A8D04969A8FEC
:10364000898FAFA5B8A9EA17FB0709F05DCF909164
:10365000E6038091E503981751F480E090E0A0E044
:10366000B0E0F401818B928BA38BB48B11C06F8D72
:1036700078A189A19AA12FEE3FEF4FE75FE30E9467
:103680004E38181654F480E090E0A0E0B0E0F40169
:10369000818F928FA38FB48F66C06F8D78A189A11F
:1036A0009AA12FEE3FEF4FE75FEB0E944E381816BE
:1036B00044F08FEE9FEFAFE7BFEB8F8F98A3A9A3E6
:1036C000BAA360E070E080E89FE32F8D38A149A1A4
:1036D0005AA10E94663520E030E040E05FE30E949E
:1036E00089380E9416395B016C01D40191966D9165
:1036F0007D918D919C9194972091B6063091B7065B
:103700004091B8065091B9060E948938A6019501EA
:103710000E9489387B018C0160E070E080E89FE3C3
:10372000A60195010E9466359B01AC01C801B70155
:103730000E9447367B018C0120E030E040E050E001
:103740000E944036882354F40F2EF0E0EF2EF0E074
:10375000FF2EF0E00F2FF0E01F2FF02DF401E18E8F
:10376000F28E038F148F69A57AA58BA59CA59B016A
:10377000AC010E9489387B018C01D4015D966D9368
:103780007D938D939C93909759965C9059975A96F8
:103790004C905A975B963C905B975C962C90D0909F
:1037A0000104C0900204B0900304A09004042D2DE5
:1037B0003C2D4B2D5A2D0E94403687FD04C06D2CA8
:1037C0007C2CF50105C0D801C7013701FA2FEB2F7A
:1037D000652D742D832D922D93014F2F5E2F0E9406
:1037E000403688232CF4852D942DA32DB22D0EC0A8
:1037F000C801B7012D2D3C2D4B2D5A2D0E9440366E
:1038000087FD06C08D2D9C2DAB2DBA2D7C018D0121
:10381000F401E58AF68A078B108FA5EFB3E0FE016D
:103820003D968CE001900D928150E1F7F401858D79
:10383000968DA78DB0A18093010490930204A0936C
:103840000304B0930404A9EEB3E0FE0131968CE0CA
:1038500001900D928150E1F78091E7038093E60398
:103860008F5F823109F480E08093E7030E94EB17B9
:10387000E0960FB6F894DEBF0FBECDBFCF91DF91BB
:103880001F910F91FF90EF90DF90CF90BF90AF907E
:103890009F908F907F906F905F904F903F902F9070
:1038A00008958CE1E9EEF3E0DF011D928A95E9F7D6
:1038B0001092E5031092E60381E08093E7031092F3
:1038C000E80308958F929F92AF92BF92CF92DF92BA
:1038D000EF92FF920F931F93DF93CF93CDB7DEB795
:1038E0002A970FB6F894DEBF0FBECDBF7B018C01C7
:1038F000A42E20E030E040E050E00E9440368823D3
:103900003CF48DE20E94F72417FB109517F91095EF
:10391000DA2C0CC0C801B70120E030E048EC52E4DA
:103920000E9489387B018C018EEFD80EE1E0ED1505
:1039300088F3A0FE0AC0C801B70120E030E040E2F1
:1039400051E40E9489387B018C01C801B70120E055
:1039500030E040E05FE30E9467350E94AF366B01C4
:103960007C019E012F5F3F4FF901EA0DF11D8EE2B0
:103970008083BB2449011EC0BA1409F4B3948401A6
:103980000B0D111DC701B6012AE030E040E050E008
:103990000E948E39605DF8016083B394C701B6015F
:1039A0002AE030E040E050E00E948E39C901DA019F
:1039B0006C017D01C114D104E104F104E9F606C0F3
:1039C000FC01EB0DF11D2083B39403C0CE010196E1
:1039D00020E3BA14A8F3BA1489F48B2D8F5FFE018B
:1039E000E80FF11D90E39183B82EB39407C0FE0158
:1039F000EB0DF11D80810E94F724BA94BB20B9F72A
:103A00002A960FB6F894DEBF0FBECDBFCF91DF91DF
:103A10001F910F91FF90EF90DF90CF90BF90AF90EC
:103A20009F908F90089543E00E94621C08959B012F
:103A3000AC018091BE0680FF0AC0CA01B9012BE823
:103A400032E441E25DE30E94893841E003C0CA01EB
:103A5000B90140E00E94621C08959B01AC01809175
:103A6000BE0680FF0AC0CA01B9012BE832E441E278
:103A70005DE30E94893844E003C0CA01B90143E014
:103A80000E94621C0895CF93DF93EC0102C00E9454
:103A9000F724FE01219684918823C9F7DF91CF9105
:103AA0000895CF93DF93EC0103C021960E94F72481
:103AB00088818823D1F7DF91CF910895CF92DF924B
:103AC000EF92FF921F93DF93CF93CDB7DEB7382FDE
:103AD000562FCDB6DEB68DB79EB7841B91090FB6B3
:103AE000F8949EBF0FBE8DBFEDB6FEB60894E11CE4
:103AF000F11C20E00DC0F701E20FF11D832F652FAF
:103B00000E9482399083832F0E948239382F2F5F41
:103B1000241788F3142F09C0F701E10FF11D319725
:103B20008081805D0E94F72411501123A9F70FB600
:103B3000F894DEBE0FBECDBECF91DF911F91FF90F6
:103B4000EF90DF90CF9008958A3010F441E005C0E7
:103B5000843610F043E001C042E06AE00E945E1D3E
:103B6000089562E048E00E945E1D08953D98459AE0
:103B70000895982F1092C0058091BE0687FD03C05E
:103B800080E28093C005992331F08091C00590E2D6
:103B900089278093C005089586B180729091C005F1
:103BA00089270895809100018130B1F486B1807237
:103BB0009091C005891781F010920001E2EBF5E0C9
:103BC000DF011C978CE00D9001928150E1F780910C
:103BD000010180648093010108959FB7F89480915A
:103BE00001018260809301019FBF0895CF92DF920F
:103BF000EF92FF920F931F93CF93DF93FF24F394E1
:103C000028E0D22E90E2C92E00E180E4E82E8091D7
:103C10000201882381F1F092A305182F81FF02C0D1
:103C200081E00FC082FF02C082E00BC083FF02C0B0
:103C300083E007C084FF02C084E003C085FF03C0A7
:103C400085E00E94A82410FF0FC081E00E94D61FCB
:103C50009FB7F894809101018F7E809301019FBFEF
:103C60008091010184FFFCCF8FB7F89490910201FD
:103C7000109202018FBF10910101112309F4C9C0F4
:103C8000C12FD0E014FF04C081E08093A205DAC008
:103C900010FF0AC00E9476209FB7F894809101011E
:103CA0008E7F809301019FBFCE0188769070892B13
:103CB00009F43DC09091A305992349F0892F8C7791
:103CC00071F1983021F40E94B529F092A4059091E9
:103CD000A305992319F482E08093A405C6FF09C0C7
:103CE000983011F4E092A3058091A4058860809338
:103CF000A405C3FF06C08091A30585FD02C0009303
:103D0000A305C5FF0CC086E00E94D61F8091A405C4
:103D100081FD146084608093A405C092A3059FB7C1
:103D2000F894809101018779809301019FBFC12F91
:103D3000D0E011FF4AC0CE0188769070892BE9F55A
:103D40008091A305882331F08075B9F18091A40595
:103D500081FF33C08091A40582FF1CC08091330590
:103D6000882371F0409134055091350560913605F6
:103D7000709137050E94D42880EA9FE00E944D1779
:103D800080913205882331F00E940C0488EE93E084
:103D90000E944D170E949417892B59F08091A40519
:103DA00083FD07C0D092A3050E94D7290E94552900
:103DB00002C01092A3051092A4059FB7F8948091B9
:103DC00001018D7F809301019FBFC2FF22C08091BE
:103DD000A305807391F08091A505882371F48091EB
:103DE000A40582FF04C00E94CE280E940A0480918C
:103DF000A40582608093A40504C01092A4051092CB
:103E0000A3059FB7F894809101018B7F80930101F6
:103E10009FBF8091A3058C7711F00E94D7298091D4
:103E2000A305803251F48091A40581FF06C00E9451
:103E30001333882311F40093A3058091A4058823EC
:103E400009F0E5CEDF91CF911F910F91FF90EF9098
:103E5000DF90CF9008959FB7F89480910101826020
:103E6000809301019FBF0E94F61D8091A2058823C7
:103E700041F40E949417892BB1F78091A3058830F3
:103E800091F308950F931F930E94D11F8091A30572
:103E9000813021F482E00E94D61F28C00E94133393
:103EA000882341F0809101018062809301010E948A
:103EB000F61D02C01092A30585E094E00E949C3399
:103EC00015C09A3011F09D3029F5E12FF0E0EB5F3D
:103ED000FB4F10820E94F61D8091A205882331F4C9
:103EE00080910504882321F40E940F2000E02BC05C
:103EF000843229F485E094E00E94C833F5CF8091A4
:103F0000A305813011F489E0EFCF85E094E00E94B1
:103F1000CB04EACF002331F0993239F5013029F58D
:103F200000E023C0913208F19F32F9F0983211F489
:103F300001E01BC09B3311F402E017C01F3428F0CE
:103F40008BE00E940F2010E010C0892F8156A12F16
:103F5000B0E0E12FEF5F8A3120F4AB5FBB4F9052AE
:103F600002C0AB5FBB4F9C931E2F0E943F25982F32
:103F70008F3F09F0A6CF8FB7F8949091010192601E
:103F8000909301018FBF0E94F61D8091A2058823A6
:103F900061F31F910F91089583E994E00E94431DFE
:103FA000089587ED95E00E94431D08951F93182FF3
:103FB00087E696E00E94431D1430D9F0153038F49E
:103FC000123089F0133090F4113019F509C0163011
:103FD000B1F0163088F01730A9F01830D1F415C0C0
:103FE00085E596E014C081E496E011C08FE296E08A
:103FF0000EC087E296E00BC08EE196E008C083E138
:1040000096E005C08BE096E002C088EF95E00E9444
:10401000431D84EF95E00E94431D1F9108951F9357
:10402000182F882319F48BEC97E05CC083EC97E0A1
:104030000E94431D1730A9F1183078F4133029F18C
:10404000143030F41130C9F0123009F042C018C0F9
:10405000153009F1163010F51BC01B3071F11C3002
:1040600028F4193021F11A3028F51EC0153141F11C
:10407000163161F1143169F526C08BEA97E002C070
:1040800089E997E00E94431D2BC087E897E0FACFAB
:104090008DE797E0F7CF8CE697E0F4CF8DE597E0DA
:1040A000F1CF8CE397E0EECF83E397E0EBCF88E2AC
:1040B00097E0E8CF85E197E0E5CF87E097E0E2CFB2
:1040C00081EF96E0DFCF8DED96E0DCCF89EC96E0D6
:1040D000D9CF87EB96E00E94431D812F0E94A41D3B
:1040E00084EB96E00E94431D1F910895DF92EF92AA
:1040F000FF920F931F93DF93CF93CDB7DEB76897EF
:104100000FB6F894DEBF0FBECDBFDE011196E6EA12
:10411000F5E08CE001900D928150E1F78091A305CC
:104120008430F1F0853038F48130E9F0813078F076
:10413000823019F51BC0803181F0813118F488304C
:10414000E1F408C08032A9F08034B9F403C087E3F9
:1041500091E011C082E391E00EC08CE291E00BC0CF
:1041600086E291E008C08FE191E005C088E191E02E
:1041700002C082E191E00E94431D8091B50690E06B
:1041800083709070892B39F0CE010D96BE016F5F60
:104190007F4F0E9431338091B50680FF1EC08BE0B7
:1041A00091E00E94431D6D857E858F8598890E94D0
:1041B0002D1D89E091E00E94431D69897A898B89D0
:1041C0009C890E942D1D89E091E00E94431D6D890C
:1041D0007E898F89988D0E942D1D8091B50681FF63
:1041E00050C082E091E00E94431D8E01035F1F4F8B
:1041F0008DE4E82E85E0F82EDD24F70160817181E1
:104200008281938124853585468557850E9467354F
:104210009B01AC01F80160817181828193810E94D0
:104220006635F8016083718382839383F2E0DF1641
:1042300079F42091650530916605409167055091AC
:1042400068050E946635F8016083718382839383D9
:10425000F80160817181828193810E942D1DF2E0BD
:10426000DF1621F080E091E00E94431DD3940C5FA3
:104270001F4F84E090E0E80EF91E93E0D91609F094
:10428000BCCF8091B50682FF08C08AEF90E00E9403
:10429000431D0E94E0170E94A41D8091B50683FF74
:1042A00008C085EF90E00E94431D0E94D6240E9422
:1042B000A41D8091B50684FF0AC08FEE90E00E9495
:1042C000431D0E940F1062E043E00E945E1D8BEED2
:1042D00090E00E94431D68960FB6F894DEBF0FBEB3
:1042E000CDBFCF91DF911F910F91FF90EF90DF90A5
:1042F00008950F931F938C018DE491E00E94431D5C
:10430000C8010E94511D89E491E00E94431D1F9144
:104310000F910895FF920F931F93F82E8B0182E661
:1043200091E00E94431D8F2D0E94A41D80E691E024
:104330000E94431DC8010E94511D8DE591E00E941D
:10434000431D1F910F91FF90089587ED91E00E940A
:10435000431D80912A058230A1F0833028F4882300
:1043600041F08130B9F408C0833071F0883091F4A5
:104370000EC084ED91E002C081ED91E00E94431DEA
:1043800012C08EEC91E0FACF8BEC91E0F7CF87EC86
:1043900091E0F4CF82EC91E00E94431D80912A05C8
:1043A00082500E94A41D8FEB91E00E94431D8091DA
:1043B00030058A5C0E94A41D80912E05813041F059
:1043C000813018F0823059F406C08AEB91E005C0C4
:1043D00085EB91E002C080EB91E00E94431D80914B
:1043E0002C05882319F48BEA91E002C086EA91E05B
:1043F0000E94431D80912D05882319F481EA91E0E4
:1044000002C08CE991E00E94431D80912B05813010
:1044100019F487E991E002C082E991E00E94431D0E
:1044200080913105813041F0813018F0823059F4AB
:1044300006C08EE891E005C08AE891E002C086E8F7
:1044400091E00E94431D80913305813029F0813035
:1044500048F0823059F403C082E891E005C08EE74D
:1044600091E002C08AE791E00E94431D80913205ED
:10447000882319F0823041F403C086E791E002C03E
:1044800082E791E00E94431D8FE691E00E94431D68
:1044900080913C050E94A41D8CE691E00E94431D82
:1044A000609138057091390580913A0590913B05EE
:1044B0000E94171D89E691E00E94431D609134051A
:1044C0007091350580913605909137050E94171D32
:1044D00085E691E00E94431D08951F9388E092E0D5
:1044E0000E94431D10E082EB95E0612F0E9415337E
:1044F0000E942D1D123021F086E092E00E94431DA3
:104500001F5F133081F784E092E00E94431D809189
:10451000BE050E94A41D80E092E00E94431D1F91F1
:104520000895CF92DF92EF92FF920F931F93DF9344
:10453000CF93CDB7DEB72C970FB6F894DEBF0FBE82
:10454000CDBFEE246E010894C11CD11C8E2DB60186
:104550000E943127882321F487E00E940F206BC03E
:104560008DEF91E00E94431D86E0E81621F0E7E020
:10457000EE1649F403C08AEF91E002C087EF91E0A4
:104580000E94431D04C08E2D8A5C0E94A41D85EFED
:1045900091E00E94431D8601FF24F8016081718132
:1045A000828193810E942D1DF2E0FF1619F083EFA6
:1045B00091E002C08FEE91E00E94431DF3940C5FE6
:1045C0001F4F83E0F81649F7E394E8E0EE1609F090
:1045D000BDCF89EE91E00E94431D09E515E0FF245F
:1045E000F80160817181828193810E942D1DF2E02A
:1045F000FF1619F087EE91E002C083EE91E00E9471
:10460000431DF3940C5F1F4F83E0F81649F78DEDBF
:1046100091E00E94431D609165057091660580914F
:104620006705909168050E942D1D89ED91E00E941B
:10463000431D0E946D222C960FB6F894DEBF0FBE6C
:10464000CDBFCF91DF911F910F91FF90EF90DF9041
:10465000CF900895FF920F931F93CF93DF938FE82E
:1046600094E00E94431D8091B1060E94A41D86E73C
:1046700094E00E94431D8091B4060E94A41D88E529
:1046800094E00E94431D8091B2060E94A41D8FE316
:1046900094E00E94431D8091B2060E94B11D88E300
:1046A00094E00E94431D8091B3060E94A41D80E205
:1046B00094E00E94431D8091B3060E94B11D89E1E0
:1046C00094E00E94431D8091BE0690E096958795E8
:1046D0009695879581700E94A41D88EF93E00E94B3
:1046E000431D8091BE0690E056E0969587955A95B9
:1046F000E1F781700E94A41D88ED93E00E94431DA4
:1047000090E08091BE0687FD91E0892F0E94A41D54
:1047100088EB93E00E94431D8091B5060E94A41D82
:1047200082EA93E00E94431D8091B5060E94B11D6C
:104730008AE993E00E94431D6091B6067091B70626
:104740008091B8069091B9060E94131D8AE793E004
:104750000E94431D6091BA067091BB068091BC0611
:104760009091BD060E94131D8FE593E00E94431DAA
:104770008091BE0681700E94A41D82E493E00E9495
:10478000431D8091BE0690E045E0969587954A9539
:10479000E1F781700E94A41D87E293E00E94431D0F
:1047A0008091BE0690E033E0969587953A95E1F7C3
:1047B00081700E94A41D8CE093E00E94431D8091B3
:1047C000BE0690E024E0969587952A95E1F78170E2
:1047D0000E94A41D80EF92E00E94431D8091BF06BD
:1047E0000E94A41D86ED92E00E94431D8091BF06A9
:1047F0000E94B11D8EEC92E00E94431D6091C006A4
:104800007091C1068091C2069091C3060E94131D4B
:1048100081EB92E00E94431D6091C4067091C50631
:104820008091C6069091C7060E94131D84E992E00C
:104830000E94431D8091C8060E94A41D85E792E056
:104840000E94431D6091CA067091CB068091CC06F0
:104850009091CD060E94131D8CE592E00E94431DAD
:1048600010E094E6F92E6AC08AE592E00E94431DAA
:10487000802F8F0D0E94A41D88E592E00E94431DA9
:10488000113061F0113028F0123069F01330E9F482
:1048900015C0688179818A819B8115C06C857D8571
:1048A0008E859F8510C0688D798D8A8D9B8D20E0C7
:1048B00030E041E655E40E94473605C06CA17DA179
:1048C0008EA19FA190580E94131D85E592E00E9441
:1048D000431D013041F0013018F0023059F406C098
:1048E00083E592E005C081E592E002C08FE492E0AA
:1048F0000E94431D113051F0113028F0123049F060
:10490000133071F409C085E492E008C083E392E0BB
:1049100005C082E292E002C082E192E00E94431D63
:104920008EE092E00E94431D0F5F2496033009F051
:104930009BCF1F5F143031F08AE0F80EC1E8D6E05B
:1049400000E092CFDF91CF911F910F91FF900895DA
:104950001F93182F8CEA96E00E94431D133091F0AC
:1049600014302CF4113041F01230B1F408C014307E
:1049700061F0153089F40CC081EA96E00BC086E93D
:1049800096E008C083E896E005C088E796E002C09C
:104990008CE696E00E94431D89E696E00E94431D46
:1049A00084EF91E00E944D171F9108959091560455
:1049B00080915504891710F0891B08958058891B30
:1049C0000895E0ECF0E08081826080831092C50061
:1049D00080E18093C400E1ECF0E08081806180831D
:1049E0008081886080838081806880830895282FFB
:1049F000E09157049E2F9F5F903431F490E004C003
:104A00008091010184FD0FC0809158049817C1F373
:104A1000F0E0EF53FA4F2083909357048091C10048
:104A200080628093C10008951F920F920FB60F927B
:104A300011248F939F93EF93FF9380915804E82F55
:104A4000F0E0EF53FA4F90819093C600982F9F5F4C
:104A5000903409F490E0909358048091570498178B
:104A600029F48091C1008F7D8093C100FF91EF9167
:104A70009F918F910F900FBE0F901F90189590915E
:104A8000560480915504891711F48FEF0895E92F8A
:104A9000F0E0EF5FF94F8081E92FEF5FE03809F434
:104AA000E0E0E09356040895809155048093560405
:104AB00008951F920F920FB60F9211242F933F93D8
:104AC0004F935F936F937F938F939F93AF93BF9316
:104AD000EF93FF939091C6009F3361F0903428F4D8
:104AE000983119F1913221F514C09034C1F09E37FC
:104AF000F9F406C09FB7F89480910101816005C068
:104B00009FB7F894809101018260809301019FBF5B
:104B100020C09FB7F894809101018860F6CF9FB7BD
:104B2000F894809101018062F0CF0E945F1211C061
:104B3000E09155042E2F2F5F203809F420E080915A
:104B40005604281731F0F0E0EF5FF94F908320937F
:104B50005504FF91EF91BF91AF919F918F917F91FC
:104B60006F915F914F913F912F910F900FBE0F90DA
:104B70001F901895882311F484E00895813011F076
:104B800080E1089588E00895882311F480E2089573
:104B9000813011F080E8089580E40895882311F4AD
:104BA00082E00895813011F080E1089584E0089555
:104BB00080E090E00E942104893011F020E00CC0D8
:104BC00081E896E061E070E04DE450E00E949404DA
:104BD00020E0892B09F021E0822F089580E090E009
:104BE00069E00E94290481E090E061E876E04DE40C
:104BF00050E00E944B040895CF92DF92EF92FF9213
:104C00000F931F93082F6A017B01CB01BA0120E0AB
:104C100030E040E050E00E944036882314F484E005
:104C20000EC1043608F459C0045690E0033008F071
:104C30004BC0913089F0913030F09230D1F0933008
:104C400009F0F8C031C0E02FF0E0EE0FFF1FEE0FCB
:104C5000FF1FEF57F94F08C0E02FF0E0EE0FFF1FE6
:104C6000EE0FFF1FE357F94FC082D182E282F38239
:104C7000E1C010E0000F111F000F111F0756194F60
:104C8000C701B60120E030E040E752E40E948938D5
:104C900020E030E040E752E40E948938F801608368
:104CA000718382839383C6C0E02FF0E0EE0FFF1F75
:104CB000EE0FFF1FEB55F94FD701C601B0588083A7
:104CC0009183A283B383B6C00A3008F4B7C09F5F54
:104CD000943009F4B3C00A50A9CFC701B6010E94AD
:104CE00063390E94B436E02FF0E0EC31F10508F0B2
:104CF000A5C0EC5CFF4FEE0FFF1F0590F491E02D77
:104D00000994633010F486E09AC06093B10692C0B3
:104D10006093B4068FC06093B20602C06093B3067E
:104D20000E94383087C0662321F08091BE068460DF
:104D300009C08091BE068B7F05C0662331F080914B
:104D4000BE0680648093BE0675C08091BE068F7BD0
:104D5000F9CF662321F08091BE068068F3CF809161
:104D6000BE068F77EFCF6093B50664C0C092B606DB
:104D7000D092B706E092B806F092B9065BC0C09236
:104D8000BA06D092BB06E092BC06F092BD0652C0B5
:104D9000662321F08091BE068160D4CF8091BE064B
:104DA0008E7FD0CF662341F08091BE0684FD02C085
:104DB0008AE045C08062C6CF8091BE068F7DC2CF9B
:104DC000662321F08091BE06886003C08091BE06F4
:104DD000877F8093BE060E944E0F2CC0662321F071
:104DE0008091BE068061AECF8091BE068F7CAACF37
:104DF0006093BF061FC0C092C006D092C106E09269
:104E0000C206F092C30616C0C092C406D092C50670
:104E1000E092C606F092C7060DC06093C8061092D5
:104E2000C90608C0C092CA06D092CB06E092CC0652
:104E3000F092CD060E94EE2580E001C083E01F9134
:104E40000F91FF90EF90DF90CF9008959DE0899FA4
:104E5000C001112480509E4F4CE050E00E944B0452
:104E600008950F931F93CF93DF93162F072F9DE085
:104E7000899FE0011124C050DE4F862F972FBE017D
:104E80004CE050E00E949404892B11F081E00FC0A7
:104E9000E12FF02F8CE0DF011D928A95E9F7CE011A
:104EA000612F702F4CE050E00E944B0480E0DF91B6
:104EB000CF911F910F910895CF92DF92EF92FF92C1
:104EC0000F931F93DF93CF93CDB7DEB72C970FB619
:104ED000F894DEBF0FBECDBFE82E80FFC1C08AE0D0
:104EE0008093B10689E18093B4061092B2061092C5
:104EF000B30683E08093B5068AE097EDA3E2BCE3B6
:104F00008093B6069093B706A093B806B093B906FF
:104F10008FE692E1A3E0BBE38093BA069093BB06D1
:104F2000A093BC06B093BD061092BF0680E090E04F
:104F3000A8ECB1E48093C0069093C106A093C2068A
:104F4000B093C30620E030E04AEF53E42093C40658
:104F50003093C5064093C6065093C7068AEF90E08B
:104F60009093C9068093C80680E090E0A0E8BFE374
:104F70008093CA069093CB06A093CC06B093CD063F
:104F80001092BE0680E090E0AAE7B3E48093810629
:104F900090938206A0938306B0938406809385063F
:104FA00090938606A0938706B0938806809389061F
:104FB00090938A06A0938B06B0938C0620938D065F
:104FC00030938E0640938F0650939006209391065F
:104FD000309392064093930650939406209395063F
:104FE00030939606409397065093980680E090EA97
:104FF000ACE0B7E48093990690939A06A0939B0641
:10500000B0939C0680939D0690939E06A0939F0666
:10501000B093A0068093A1069093A206A093A30646
:10502000B093A40680E090E0A8E4B3EC8093A506DA
:105030009093A606A093A706B093A8068093A9060E
:105040009093AA06A093AB06B093AC068093AD06EE
:105050009093AE06A093AF06B093B0060E94EE25E3
:10506000E1FE16C0FE0131968CE0DF011D928A95AB
:10507000E9F700E012E06F01C801B6014CE050E032
:105080000E944B04035F1F4FB2E008361B07A1F7D5
:10509000E2FE0AC080E093E060E00E94290481E51E
:1050A00093E060E00E942904E3FE05C08EEA93E0ED
:1050B00060E00E9429042C960FB6F894DEBF0FBE64
:1050C000CDBFCF91DF911F910F91FF90EF90DF90B7
:1050D000CF9008950E94D825882341F487E00E944C
:1050E0000F208FEF0E945C270E942A230895BC01A5
:1050F0008EEA93E040E550E00E944B040895CF9380
:10510000DF93EC016EEA73E040E550E00E94940406
:10511000892B11F081E009C018828EEA93E0BE016C
:1051200040E550E00E944B0480E0DF91CF9108956C
:1051300091E5899FC001112480509D4F40E550E0CA
:105140000E944B0408950F931F93CF93DF938B011D
:1051500091E5899FE0011124C050DD4FCB01BE01D4
:1051600040E550E00E949404892B11F081E009C0D1
:10517000F8011082CE01B80140E550E00E944B04D6
:1051800080E0DF91CF911F910F910895239A259A86
:10519000E0EBF0E080818F7780830895E0EBF0E032
:1051A00080818F7780830895EF92FF920F931F93F2
:1051B0007A018B018823C1F0813011F42D9801C050
:1051C0002D9A83E88093B0008091B100887F82603F
:1051D0008093B100C801B70120E030E040E050E02A
:1051E0000E944036181634F08091B0008F7780937B
:1051F000B0003DC0C801B70120E030E040E050E021
:105200000E94403688235CF40F2EF0E0EF2EF0E091
:10521000FF2EF0E00F2FF0E01F2FF02D14C0C8017B
:10522000B70120E030E04AE754E40E944E381816F7
:1052300054F40F2EF0E0EF2EF0E0FF2EFAE70F2FE0
:10524000F4E41F2FF02DC801B7012CE53FE842E838
:105250005EE30E94893820E030E040E05FE30E9496
:1052600067350E941D370E94B4366093B3001F91CA
:105270000F91FF90EF900895DF92EF92FF920F93BE
:105280001F93D82E7A018B018091A305823039F0CB
:105290000E942B1F8D2DB801A7010E94D4281F91B9
:1052A0000F91FF90EF90DF9008958091BE0682FFEE
:1052B00002C0289A01C028988091A3058C70E1F063
:1052C0008091F9048093E1048091F8048093E004D4
:1052D0008091B10690E0A0E0B0E00297A109B10989
:1052E000880F991FAA1FBB1F81958093DF048091AF
:1052F0006F00826080936F0008951F920F920FB627
:105300000F9211248F939F939BB18091F8048C711D
:10531000937E892B8BB915BC9F918F910F900FBEF7
:105320000F901F9018958AB18C618AB9209A8AB122
:10533000806E8AB9E1E8F0E080818F7E8083808191
:1053400088608083E0E8F0E080818C7F80838081CA
:105350008F708083EEE6F0E08081887F808314BCCC
:1053600015BC8081816080830895CF93DF93C091C5
:10537000FB04D091FC042097B9F081E080930005F4
:105380002091160530911705409118055091190587
:10539000CA01B9010E948938698B7A8B8B8B9C8BEF
:1053A0001092FC041092FB04DF91CF9108952F928C
:1053B0003F924F925F926F927F928F929F92AF92A5
:1053C000BF92CF92DF92EF92FF920F931F93DF93E2
:1053D000CF93CDB7DEB7E9970FB6F894DEBF0FBE17
:1053E000CDBF8091A305807709F422C66091160590
:1053F00070911705809118059091190520E030E013
:1054000040E050E00E944036882309F011C617C6DC
:105410008091FB049091FC04892B09F07EC20E94CC
:1054200094179093FC048093FB04892B09F407C61E
:1054300080910005882319F010920005CAC0809160
:10544000FF048F5F8093FF04853011F41092FF04F6
:10545000E091FF0421E1E29FF0011124E75AFB4FA4
:10546000F093FE04E093FD040091FB041091FC0412
:10547000D8018C91808311962D913D914D915C9135
:10548000149793E0220F331F441F551F9A95D1F7AD
:10549000218332834383548315962D913D914D9101
:1054A0005C91189783E0220F331F441F551F8A9584
:1054B000D1F7258336834783508719962D913D91E7
:1054C0004D915C911C9773E0220F331F441F551FB1
:1054D0007A95D1F721873287438754871D962D917E
:1054E0003D914D915C91509763E0220F331F441F13
:1054F000551F6A95D1F7258736874787508B1D96AC
:105500006D917D918D919C9150970E94E0366093B2
:105510000105709302058093030590930405F8013B
:1055200025A136A147A150A50E9447369B01AC0199
:105530006093050570930605809307059093080511
:1055400060E070E080EA9FE30E94473660930905BF
:1055500070930A0580930B0590930C0580E090E012
:10556000A0E0B0E080930D0590930E05A0930F0589
:10557000B09310058091A3058077E1F020911E057E
:1055800030911F054091200550912105209316056B
:10559000309317054093180550931905CA01B901B6
:1055A0000E948938D80151966D937D938D939C9379
:1055B00054970FC0F80161897289838994890E9488
:1055C000163960931605709317058093180590930C
:1055D000190580E090E0A0E0B0E080931205909380
:1055E0001305A0931405B09315050091FB041091C9
:1055F000FC04D80191968D919D910D90BC91A02DA8
:1056000088AB99ABAAABBBAB60E070E080E09FE3F6
:1056100028A939A94AA95BA90E9447361B012C0178
:105620008091A305807709F456C0B2E0B0931105CC
:10563000F801A5A0B6A0C7A0D0A46188728883880D
:105640009488C201B101A40193010E9489389B0191
:10565000AC01C601B5010E9466357B018C0120E0DA
:1056600030E040E050E00E9440368823FCF468A916
:1056700079A98AA99BA920E030E040E050EC0E9483
:105680008938A60195010E9489389B01AC01C401AB
:10569000B3010E9467350E94163960931E0570930E
:1056A0001F05809320059093210537C1E0921205D4
:1056B000F0921305009314051093150580E090E017
:1056C000A0E0B0E080931E0590931F05A0932005F5
:1056D000B093210522C110921105F80185A196A170
:1056E000A7A1B0A58093220590932305A09324053C
:1056F000B09325050E9413195B016C0160931E0590
:1057000070931F058093200590932105A6019501B4
:105710000E9489383B014C012091FB043091FC042C
:1057200039AF28AFD90195968D919D910D90BC917F
:10573000A02D8B8F9C8FAD8FBE8FF90161897289EF
:1057400083899489A40193010E9466359B01AC0171
:10575000C201B1010E9489389B01AC016B8D7C8D27
:105760008D8D9E8D0E94673520E030E040E05FE344
:105770000E9489387B018C0120E030E040E050E05D
:105780000E944E3818160CF0B4C0C801B7012B8D1A
:105790003C8D4D8D5E8D0E94403688230CF095C067
:1057A000A8ADB9AD5D966D917D918D919C919097CD
:1057B000A40193010E9466359B01AC01C201B101B5
:1057C0000E948938609326057093270580932805E9
:1057D00090932905A80197010E94403688230CF078
:1057E00047C0E8ADF9ADE58CF68C078D10A1C80176
:1057F000B7010E94163960931A0570931B058093B8
:105800001C0590931D05A8ADB9AD5196AD90BD9006
:10581000CD90DC905497C601B501A80197010E9474
:105820004036882321F4B1E0B093110576C0C80159
:10583000B701A60195010E9466359B01AC01C2012A
:10584000B1010E9489389B01AC01609122057091E1
:10585000230580912405909125050E94663560936B
:10586000220570932305809324059093250555C048
:10587000E0922205F092230500932405109325055C
:10588000E0922605F092270500932805109329053C
:10589000E8ADF9AD21A132A143A154A1CA01B901DA
:1058A0000E946735A80197010E948938A4019301DD
:1058B0000E9467350E94163960931A0570931B0584
:1058C00080931C0590931D0528C0F2E0F09311050C
:1058D0008091160590911705A0911805B0911905B2
:1058E00080931A0590931B05A0931C05B0931D058A
:1058F00014C080E090E0A0E0B0E080932205909397
:105900002305A0932405B0932505A0921A05B09213
:105910001B05C0921C05D0921D058091F604B6E0CF
:105920008B9FD0011124A255BB4FB9AFA8AF809176
:10593000FF0412968C93E091FB04F091FC04FA8F23
:10594000E98F85A196A1A7A1B0A58D8B9E8BAF8B6A
:10595000B88FBC01CD012091090530910A05409115
:105960000B0550910C050E9466356CA37DA38EA398
:105970009FA320E030E040E050E00E9440368823C2
:1059800044F480E090E0A0E0B0E08CA39DA3AEA33F
:10599000BFA38091220590912305A0912405B09189
:1059A0002505898B9A8BAB8BBC8B80911A059091C6
:1059B0001B05A0911C05B0911D058D879E87AF87A3
:1059C000B88B8091260590912705A0912805B0916C
:1059D000290589879A87AB87BC87809112059091AA
:1059E0001305A0911405B09115058D839E83AF8397
:1059F000B88780911E0590911F05A0912005B09158
:105A0000210589839A83AB83BC838091160590918D
:105A10001705A0911805B091190588A399A3AAA309
:105A2000BBA3909111059F8FAD88BE88CF88D88C7D
:105A30008EE393ECAEE2B9E38CA79DA7AEA7BFA718
:105A400080E090E0A0E0B0E088A799A7AAA7BBA754
:105A50000F2EFEE36F2EF3EC7F2EFEE28F2EF9E386
:105A60009F2EF02D9F8D992321F0913009F0B3C026
:105A700080C0C401B301A98DBA8D91962D913D913D
:105A80004D915C9194970E9489387B018C0120E0B4
:105A900030E040E05FE30E9489389B01AC0168A1DF
:105AA00079A18AA19BA10E9467359B01AC01C40129
:105AB000B3010E9489389B01AC01C601B5010E9467
:105AC00066355B016C0129893A894B895C890E94A2
:105AD000403688230CF040C069897A898B899C897B
:105AE00029853A854B855C850E944036882319F4C8
:105AF000B2E0BF8F02C0E1E0EF8F6D897E898F89B0
:105B0000988D29893A894B895C890E9466359B0169
:105B1000AC010E9467357B018C0168A179A18AA143
:105B20009BA12D853E854F8558890E9467359B0135
:105B3000AC01C801B7010E9447363B014C01A9885E
:105B4000BA88CB88DC888D859E85AF85B88988A387
:105B500099A3AAA3BBA3B0C068A179A18AA19BA164
:105B6000A80197010E94673568A379A38AA39BA324
:105B7000A3C06D857E858F859889A40193010E94BD
:105B800089389B01AC01C601B5010E9466357B01D5
:105B90008C0129853A854B855C850E94403687FDBE
:105BA00003C05701680188C0C601B50129853A853F
:105BB0004B855C850E9466352D853E854F855889CD
:105BC0000E9447363B014C01A984BA84CB84DC8413
:105BD00092E09F8F71C0C401B301A98DBA8D9196D7
:105BE0002D913D914D915C9194970E9489387B0154
:105BF0008C0168A179A18AA19BA1A80197010E94AB
:105C00004E381816ACF5C801B70120E030E040E08E
:105C10005FEB0E9489389B01AC0168A179A18AA140
:105C20009BA10E9467359B01AC01C401B3010E9496
:105C300089389B01AC01C601B5010E9466351B0184
:105C40002C012D813E814F8158850E944E381816B7
